:100000000C9465000C948D000C948D000C948D0064
:100010000C948D000C948D000C948D000C948D002C
:100020000C948D000C948D000C948D000C948D001C
:100030000C948D000C948D000C948D000C948D000C
:100040000C94BD030C948D000C948B030C946503ED
:100050000C948D000C948D000C948D000C948D00EC
:100060000C948D000C948D000000000025002800E9
:100070002B0000000008000201000003040700003C
:1000800000000000000000000000240027002A00FB
:1000900000010203040500000000230026002900DF
:1000A000040404040404040402020202020203031E
:1000B0000303030301020408102040800102040826
:1000C00010200102040810204C0411241FBECFEFA1
:1000D000D8E0DEBFCDBF21E0A6E2B1E001C01D92B5
:1000E000A23FB207E1F711E0A0E0B1E0E6E9F1E1FB
:1000F00002C005900D92A632B107D9F710E0C5E60F
:10010000D0E004C02197FE010E94BE08C436D1078A
:10011000C9F70E949C040C94C9080C94000082301A
:10012000910538F0880F991F880F991F059701973F
:10013000F1F70895CF92DF92EF92FF920F931F9302
:10014000CF93DF936C017A018B01C0E0D0E0CE1534
:10015000DF0589F0D8016D918D01D601ED91FC91FB
:100160000190F081E02DC6010995892B11F47E01E3
:1001700002C02196ECCFC701DF91CF911F910F9163
:10018000FF90EF90DF90CF900895089580E090E089
:100190000895FC01538D448D252F30E0842F90E08D
:1001A000821B930B541710F0CF9608950197089572
:1001B000FC01918D828D981761F0828DDF01A80F6F
:1001C000B11D5D968C91928D9F5F9F73928F90E091
:1001D00008958FEF9FEF0895FC01918D828D981700
:1001E00031F0828DE80FF11D858D90E008958FEF3D
:1001F0009FEF0895FC01918D228D892F90E0805C06
:100200009F4F821B91098F739927089586E391E090
:100210000E94FA0021E0892B09F420E0822F089542
:10022000FC01848DDF01A80FB11DA35ABF4F2C9193
:10023000848D90E001968F739927848FA689B78962
:100240002C93A089B1898C9180648C93938D848D3B
:10025000981306C00288F389E02D80818F7D80830A
:100260000895EF92FF920F931F93CF93DF93EC01CA
:1002700081E0888F9B8D8C8D981305C0E889F98962
:10028000808185FD24C0F62E0B8D10E00F5F1F4F7F
:100290000F731127E02E8C8DE8120CC00FB607FCEF
:1002A000FACFE889F989808185FFF5CFCE010E94D8
:1002B0001001F1CF8B8DFE01E80FF11DE35AFF4FC6
:1002C000F0820B8FEA89FB898081806207C0EE890A
:1002D000FF896083E889F98980818064808381E077
:1002E00090E0DF91CF911F910F91FF90EF900895D3
:1002F000CF93DF93EC01888D8823C9F0EA89FB89CD
:10030000808185FD05C0A889B9898C9186FD0FC0C3
:100310000FB607FCF5CF808185FFF2CFA889B98998
:100320008C9185FFEDCFCE010E941001E7CFDF91C8
:10033000CF91089580E090E0892B29F00E9406017A
:1003400081110C940000089590E0FC01EE58FF4FDD
:100350003491FC01EC54FF4F2491FC01E056FF4F17
:10036000E491EE2309F43BC0332339F1333091F0AB
:1003700038F43130A9F0323001F584B58F7D12C0E8
:10038000373091F03830A1F03430B9F480918000EA
:100390008F7D03C0809180008F77809380000DC097
:1003A00084B58F7784BD09C08091B0008F7703C07A
:1003B0008091B0008F7D8093B000F0E0EE0FFF1FC2
:1003C000E859FF4FA591B4918FB7F894EC91611162
:1003D00003C020952E2301C02E2B2C938FBF089590
:1003E000CF93DF93C4EDD1E061E08B810E94A40143
:1003F0008A8D9B8DDF91CF910C948F00682F809117
:10040000D6019091D70189130C94A4010895CF933C
:10041000DF9390E0FC01EC54FF4F2491FC01E05687
:10042000FF4F8491882361F190E0880F991FFC01B0
:10043000EA57FF4FC591D491FC01E859FF4FA591B0
:10044000B491611109C09FB7F894888120958223E7
:100450008883EC912E230BC0623061F49FB7F8942F
:100460003881822F809583238883EC912E2B2C93C7
:100470009FBF06C08FB7F894E8812E2B28838FBFCB
:10048000DF91CF9108953FB7F89480912701909123
:100490002801A0912901B0912A0126B5A89B05C089
:1004A0002F3F19F00196A11DB11D3FBFBA2FA92FF3
:1004B000982F8827820F911DA11DB11DBC01CD0170
:1004C00042E0660F771F881F991F4A95D1F708955C
:1004D0008F929F92AF92BF92CF92DF92EF92FF9254
:1004E0006B017C010E9443024B015C01C114D104E9
:1004F000E104F104F1F00E944302DC01CB01881910
:100500009909AA09BB09883E9340A105B10570F37A
:1005100021E0C21AD108E108F10888EE880E83E0D4
:10052000981EA11CB11CC114D104E104F10419F7F7
:10053000DDCFFF90EF90DF90CF90BF90AF909F9076
:100540008F9008958EBD00000DB407FEFDCF8EB5CF
:1005500008950F931F930091D8011091D901209114
:10056000DA013091DB0190E040E052E16AE770E0AF
:10057000041715072607370740F4769567955795B2
:1005800047959F5F9630A1F797E081E08927982FE4
:10059000906A969581709CBD8DBD60E08091D70179
:1005A0000E94A4018091EE019091EF011F910F91A3
:1005B0000C948F00CF93DF931F92CDB7DEB7898362
:1005C0000E94A902898180620E94A2028093DC01BC
:1005D0000F90DF91CF910C94F001CF93DF934423E0
:1005E00021F0DF91CF910C94DA02D62FC82F0E9410
:1005F000A9028C2F80620E94A2028093DC018D2FC1
:100600000E94A202DF91CF910C94F001CF93DF936F
:100610001F92CDB7DEB789830E94A90289810E940B
:10062000A2028093DC018FEF0E94A20289830E94C4
:10063000F00189810F90DF91CF910895EF92FF92A1
:100640001F93CF93DF931F92CDB7DEB7162F898309
:100650000E94A902898180620E94A2028093DC012B
:1006600080E0E82E81E0F82E1E0D1E1531F0F70116
:1006700081917F010E94A202F8CF0F90DF91CF916C
:100680001F91FF90EF900C94F0010E94A90280E569
:100690000E94A2028093DC0183E70E94A2020C94D4
:1006A000F001009769F0FC0101900020E9F7319713
:1006B000AF01481B590BBC0186E391E00C949A00F2
:1006C00080E090E008950E94C4081F920F920FB638
:1006D0000F9211242F933F934F935F936F937F93C8
:1006E0008F939F93AF93BF93EF93FF9386E391E034
:1006F0000E941001FF91EF91BF91AF919F918F9157
:100700007F916F915F914F913F912F910F900FBE0D
:100710000F901F9018951F920F920FB60F921124F1
:100720002F938F939F93EF93FF93E0914601F09166
:1007300047018081E0914C01F0914D0182FD12C092
:10074000908180914F018F5F8F73209150018217AC
:1007500051F0E0914F01F0E0EA5CFE4F958F8093FD
:100760004F0101C08081FF91EF919F918F912F9157
:100770000F900FBE0F901F9018951F920F920FB6FB
:100780000F9211242F933F938F939F93AF93BF9317
:100790008091300190913101A0913201B0913301EB
:1007A0003091260123E0230F2D3720F40196A11D5F
:1007B000B11D05C026E8230F0296A11DB11D20938F
:1007C00026018093300190933101A0933201B093C0
:1007D00033018091270190912801A0912901B091C6
:1007E0002A010196A11DB11D809327019093280134
:1007F000A0932901B0932A01BF91AF919F918F914E
:100800003F912F910F900FBE0F901F901895CF9290
:10081000DF92EF92FF920F931F93E82FF92F05C0FD
:10082000015011092109310961F190819623941732
:10083000B9F305C0015011092109310911F1908165
:1008400096239413F7CFC12CD12CE12CF12C0AC0A4
:100850008FEFC81AD80AE80AF80A0C151D052E05EC
:100860003F0579F080818623841791F36C2D7D2DCF
:100870008E2D9F2D1F910F91FF90EF90DF90CF90C5
:10088000089560E070E080E090E01F910F91FF908C
:10089000EF90DF90CF900895E6E3F1E013821282AB
:1008A00088EE93E0A0E0B0E084839583A683B783CD
:1008B0008AE091E09183808385EC90E0958784873E
:1008C00084EC90E09787868780EC90E0918B808B1A
:1008D00081EC90E0938B828B82EC90E0958B848B03
:1008E00086EC90E0978B868B118E128E138E148E71
:1008F000E4EDF1E087E0828388E0838380E896E995
:10090000A8E9B0E084839583A683B78380E28187DA
:10091000108A118A85E0838B81E0848B85E090E0EA
:10092000A0E0B0E0828F938FA48FB58F83ED91E02C
:100930009183808312860895CF93DF93CDB7DEB77E
:10094000A1970FB6F894DEBF0FBECDBF789484B5E3
:10095000826084BD84B5816084BD85B5826085BDBB
:1009600085B5816085BD80916E00816080936E0049
:10097000109281008091810082608093810080913B
:1009800081008160809381008091800081608093EC
:1009900080008091B10084608093B1008091B000AC
:1009A00081608093B00080917A00846080937A00A7
:1009B00080917A00826080937A0080917A008160D1
:1009C00080937A0080917A00806880937A001092F8
:1009D000C10061E086E00E94070260E085E00E94BD
:1009E0000702E0914601F091470182E08083E091A7
:1009F0004201F09143011082E0914401F0914501E0
:100A00008FEC808310924E01E0914A01F0914B01EE
:100A100086E08083E0914801F09149018081806106
:100A20008083E0914801F091490180818860808352
:100A3000E0914801F0914901808180688083E091D4
:100A40004801F091490180818F7D80831FB7F89420
:100A500080912B01811127C0EAEAF0E08491EEEB4E
:100A6000F0E09491E82FF0E0EE0FFF1FEA57FF4F00
:100A7000A591B491EC91E92321F461E08AE00E9410
:100A8000A40161E08AE00E9407028CB580618CBD00
:100A90008CB580648CBD61E08DE00E94070261E04E
:100AA0008BE00E94070280912B018F5F80932B01C6
:100AB0001FBF8091D6018F3F09F49FC09091D7014D
:100AC0009F3F09F49AC0891741F061E00E94070234
:100AD00061E08091D7010E94070280E00E94FE0140
:100AE00061E08091D7010E94A4018091EE01909174
:100AF000EF010E948F0065E070E080E090E00E94CE
:100B0000680240E06FE584E00E94ED0286E00E940A
:100B1000060345E550E060E070E04093EA01509341
:100B2000EB016093EC017093ED01682F677D40E06D
:100B300086E00E94ED0286E00E9406038DE10E949D
:100B40000603182F0E9445038DE10E94060391E0E1
:100B5000181390E09093E4018111AFC11092E60167
:100B600040E060E08CE10E94ED021092E80140E07C
:100B70006FE381E00E94ED0240E063E082E00E94CA
:100B8000ED0280E28093DD0111E140E06091DD0142
:100B9000812F0E94ED021F5F1731B9F740E063E03B
:100BA00083E00E94ED0285E08093E70140E06CE481
:100BB0000E94ED0240E060E787E00E94ED0282EED5
:100BC0000E94DA0281EE0E94DA0240E06CE080E0EE
:100BD0000E94ED0280E00E9406038093E30181FD04
:100BE0000CC0682F62606093E30140E080E00E94E7
:100BF000ED028BE19EE40197F1F76091E7018AE055
:100C00000E941E036091E70180E10E941E0386E0BE
:100C10000E940603887F682F616040E086E00E94A2
:100C2000ED0280E00E94FE018091EA019091EB01CB
:100C30000E948F008091E601882319F081EE0E94C6
:100C4000DA026091E3016E7F6093E30140E080E0AF
:100C50000E94ED0282E00E940603E0E9F0E0E491E8
:100C600061E070E001C0660FEA95EAF7682B40E0AA
:100C700082E00E94ED0243E0E42EF12C53E2C52E07
:100C8000D12C6AE0462E512C612C712C60E086E05C
:100C90000E94A401C7010197F1F761E086E00E947C
:100CA000A401C6010197F1F760E086E00E94A4016B
:100CB000E9EBF0E06491E5EAF0E08491E82FF0E000
:100CC000EE0FFF1FEA56FF4F8591949100E412E466
:100CD0002FE030E0462F0E94070461157105810561
:100CE000910539F0DC01CB010196A11DB11DBF704A
:100CF00003C080E090E0DC0180932C0190932D01F3
:100D0000A0932E01B0932F01BC01CD01959587953D
:100D1000779567950E9410082DEC3CEC48EE51E465
:100D20000E9466070E94D8077093350160933401D2
:100D300088E191E00E945103209134013091350106
:100D40004901330FAA08BB08B7FE26C0E09136015F
:100D5000F09137010190F081E02D6DE286E391E0A2
:100D6000099522273327A901281939094A095B095E
:100D700019A28E010F5D1F4FCA01B901A301920193
:100D80000E949C08605DF80162938F012115310576
:100D90004105510589F715C0A501940119A28E01DD
:100DA0000F5D1F4FCA01B901A30192010E949C0867
:100DB000605DF80162938F012115310541055105F0
:100DC00089F7C8010E94510383E291E00E94510318
:100DD0006CE271E080E090E00E9468028091E8019E
:100DE000811108C01091DD01012F133008F002E0DD
:100DF000101B02C010E002E00E94A90280EA0E94DB
:100E0000A2028093DC0184E3282E81E0382E015079
:100E100030F0F10181911F010E94A202F8CF11234D
:100E200029F080E00E94A2021150F9CF0E94F00147
:100E300081E00E94FE018FB7F8948090300190907D
:100E40003101A0903201B09033018FBF8FEF0E942B
:100E5000DA028091DC018073C1F42FB7F89480919D
:100E6000300190913101A0913201B09133012FBF37
:100E700088199909AA09BB0980369105A105B10510
:100E800028F381E08093E9010FC080E00E94FE0119
:100E900040E060E787E00E94ED028091DC0184FF82
:100EA00003C081EE0E94DA0268EE73E080E090E019
:100EB0000E9468020E949A01E9CE91110E944503A6
:100EC00040E060E08DE10E94ED0248CE0E947A078A
:100ED0000C9462080E945B0858F00E94540840F08D
:100EE00029F45F3F29F00C944B0851110C9496089B
:100EF0000C9451080E94730868F39923B1F35523A9
:100F000091F3951B550BBB27AA276217730784071C
:100F100038F09F5F5F4F220F331F441FAA1FA9F3B2
:100F200035D00E2E3AF0E0E832D091505040E695A0
:100F3000001CCAF72BD0FE2F29D0660F771F881F01
:100F4000BB1F261737074807AB07B0E809F0BB0BF4
:100F5000802DBF01FF2793585F4F3AF09E3F510508
:100F600078F00C944B080C9496085F3FE4F3983E9D
:100F7000D4F3869577956795B795F7959F5FC9F7F1
:100F8000880F911D9695879597F90895E1E0660F72
:100F9000771F881FBB1F621773078407BA0720F0EB
:100FA000621B730B840BBA0BEE1F88F7E095089554
:100FB0000E94DF076894B1110C94960808950E946E
:100FC0007B0888F09F5798F0B92F9927B751B0F058
:100FD000E1F0660F771F881F991F1AF0BA95C9F7BD
:100FE00014C0B13091F00E949508B1E008950C94BE
:100FF0009508672F782F8827B85F39F0B93FCCF371
:10100000869577956795B395D9F73EF49095809539
:10101000709561957F4F8F4F9F4F0895E89409C059
:1010200097FB3EF490958095709561957F4F8F4F1B
:101030009F4F9923A9F0F92F96E9BB279395F69531
:10104000879577956795B795F111F8CFFAF4BB0FAF
:1010500011F460FF1BC06F5F7F4F8F4F9F4F16C013
:10106000882311F096E911C0772321F09EE8872F9D
:10107000762F05C0662371F096E8862F70E060E059
:101080002AF09A95660F771F881FDAF7880F9695D2
:10109000879597F9089597F99F6780E870E060E079
:1010A00008959FEF80EC089500240A941616170601
:1010B00018060906089500240A9412161306140649
:1010C00005060895092E0394000C11F4882352F0AC
:1010D000BB0F40F4BF2B11F460FF04C06F5F7F4F64
:1010E0008F4F9F4F089557FD9058440F551F59F04B
:1010F0005F3F71F04795880F97FB991F61F09F3F05
:1011000079F087950895121613061406551FF2CF2D
:101110004695F1DF08C0161617061806991FF1CF7D
:1011200086957105610508940895E894BB276627A4
:101130007727CB0197F90895A1E21A2EAA1BBB1BB2
:10114000FD010DC0AA1FBB1FEE1FFF1FA217B30793
:10115000E407F50720F0A21BB30BE40BF50B661FA9
:10116000771F881F991F1A9469F76095709580956D
:1011700090959B01AC01BD01CF010895EE0FFF1FBB
:101180000590F491E02D099481E090E0F8940C949E
:06119000C908F894FFCF2E
:101196003030303031000000000031019A00C900C3
:1011A6007801FA00D800EC0044697374616E6365D7
:0611B6003A20000D0A00C2
:00000001FF
