:100000000C9463000C948B000C948B000C948B006C
:100010000C948B000C948B000C948B000C948B0034
:100020000C948B000C948B000C948B000C948B0024
:100030000C948B000C948B000C948B000C948B0014
:100040000C9473040C948B000C948B000C948B0018
:100050000C948B000C948B000C948B000C948B00F4
:100060000C94BD040C948B000000000024002700B9
:100070002A0000000000250028002B0000000000DE
:1000800023002600290004040404040404040202DA
:100090000202020203030303030301020408102007
:1000A0004080010204081020010204081020000012
:1000B0000008000201000003040700000000000027
:1000C0000000EB052C0911241FBECFEFD8E0DEBFE6
:1000D000CDBF22E0AEE6B1E001C01D92A43AB20766
:1000E000E1F711E0A0E0B1E0ECE1F7E102C005903A
:1000F0000D92AE36B107D9F710E0C2E6D0E004C0E9
:100100002197FE010E946F09C136D107C9F70E94ED
:100110008E060C94810B0C94000096E0899FD00110
:100120001124A85EBD4F90967C936E935F9791E0EB
:1001300091969C93919790918402E0918502F09121
:100140008602992339F0309751F0811108C08091CF
:10015000340204C0309719F05C968C91099408958C
:10016000CF92DF92EF92FF920F931F93CF93DF9383
:100170006C017A018B01C0E0D0E0CE15DF0589F07B
:10018000D8016D918D01D601ED91FC910190F08126
:10019000E02DC6010995892B11F47E0102C021963C
:1001A000ECCFC701DF91CF911F910F91FF90EF909E
:1001B000DF90CF900895833081F028F4813099F05A
:1001C0008230A1F008958730A9F08830B9F08430EA
:1001D000D1F4809180008F7D03C0809180008F7763
:1001E00080938000089584B58F7702C084B58F7D99
:1001F00084BD08958091B0008F7703C08091B000D6
:100200008F7D8093B0000895CF93DF93282F30E047
:10021000F901E255FF4F8491F901E656FF4FD49161
:10022000F901EA57FF4FC491CC2391F081110E944C
:10023000DB00EC2FF0E0EE0FFF1FE458FF4FA5911D
:10024000B491EC91ED2381E090E021F480E002C0D4
:1002500080E090E0DF91CF910895862F0C94040107
:100260001F93CF93DF93282F30E0F901E255FF4F22
:100270008491F901E656FF4FD491F901EA57FF4FF7
:10028000C491CC23C9F0162F81110E94DB00EC2F02
:10029000F0E0EE0FFF1FEE58FF4FA591B4918FB71E
:1002A000F894111105C09C91ED2FE095E92302C04F
:1002B000EC91ED2BEC938FBFDF91CF911F910895BF
:1002C000862F642F0C943001CF93DF9390E0FC01D4
:1002D000E656FF4F2491FC01EA57FF4F8491882393
:1002E00061F190E0880F991FFC01E859FF4FC5911B
:1002F000D491FC01EE58FF4FA591B491611109C052
:100300009FB7F8948881209582238883EC912E23CF
:100310000BC0623061F49FB7F8943881822F8095CA
:1003200083238883EC912E2B2C939FBF06C08FB71D
:10033000F894E8812E2B28838FBFDF91CF91089509
:10034000862F642F0C9464013FB7F89480910002CB
:1003500090910102A0910202B091030226B5A89BE0
:1003600005C02F3F19F00196A11DB11D3FBFBA2F47
:10037000A92F982F8827820F911DA11DB11DBC01A7
:10038000CD0142E0660F771F881F991F4A95D1F76C
:1003900008958F929F92AF92BF92CF92DF92EF9289
:1003A000FF926B017C010E94A4014B015C01C1140E
:1003B000D104E104F104F1F00E94A401DC01CB01BD
:1003C00088199909AA09BB09883E9340A105B1057E
:1003D00070F321E0C21AD108E108F10888EE880E16
:1003E00083E0981EA11CB11CC114D104E104F104E6
:1003F00019F7DDCFFF90EF90DF90CF90BF90AF90D7
:100400009F908F9008952FB7F8946091FC017091A0
:10041000FD018091FE019091FF012FBF08950F9380
:100420001F93CF93DF93C82FD62F86E0C89FF0018C
:100430001124E85EFD4F11A2878D90A181309105B6
:10044000F1F01CF4892B49F043C082309105A9F1E9
:100450000397F1F560E070E034C06623C9F161E014
:1004600070E08C2F0E948D000E9403026093700246
:1004700070937102809372029093730229C00E945C
:10048000030200917002109171022091720230916A
:100490007302AB01BC01401B510B620B730B8091CB
:1004A000820290918302A0E0B0E084179507A6072E
:1004B000B70718F462E070E004C0D11109C063E02E
:1004C00070E08C2FDF91CF911F910F910C948D00D4
:1004D000DF91CF911F910F91089585ED8093BC001E
:1004E0008091BC0084FDFCCF1092060208954091DB
:1004F0009001262F30E0240F311D21323105DCF42C
:10050000209106022430C9F4FC0180E090E08617B7
:1005100058F4309190012191DC01A259BE4FA30FF4
:10052000B11D2C930196F3CF80919001680F6093D9
:10053000900180E0089581E0089582E00895089593
:1005400081E090E030910A0220910902321710F404
:1005500080E090E0919581959109089580910A023B
:1005600090910902891730F48F5F80930A0280E02E
:1005700090E008958FEF9FEF08958091090290E039
:1005800020910A02821B91090895CF92DF92EF9287
:10059000FF920F931F93CF93DF937C01262F972F0A
:1005A0008A018091D901882391F0C62FD72F6E013F
:1005B000C40ED51ECC15DD0571F06991D701ED9102
:1005C000FC910190F081E02DC7010995F3CF642FD4
:1005D000822F0E947702C801DF91CF911F910F9166
:1005E000FF90EF90DF90CF900895CF93DF931F920D
:1005F000CDB7DEB769832091D9012223D1F02091B4
:100600000702203240F021E030E0FC0133832283F6
:1006100080E090E015C080910802E82FF0E0E652FB
:10062000FE4F998190838F5F809308028093070229
:1006300005C061E0CE0101960E94770281E090E062
:100640000F90DF91CF910895CF93FC01C48121E0F9
:100650002093D901C093FA01109208021092070268
:100660008485682B8CE092E00E94F502809107025D
:10067000813208F046C0909106029111FCCF92E0C1
:100680009093060291E0909305029FEF9093D8011A
:100690001092D7018093D601AAEDB1E026EB31E0AC
:1006A000F9019E2F921B981718F49D919193F9CF01
:1006B0001092B5018091B501CC0FC82BC093B50144
:1006C00080910402813061F4109204028091B5019E
:1006D0008093BB008091BC0083FDF8CF85EC01C006
:1006E00085EE8093BC00809106028230E1F3809118
:1006F000D8018F3F31F08091D801803211F0809184
:10070000D80110920802109207021092D901CF91DD
:1007100008950F931F93CF938C01C62F0E9424033B
:100720006C2F6460C8010E9424036C2F6B7FC8018A
:100730000E94240383EC90E00197F1F7CF911F9181
:100740000F910895FF920F931F93CF93DF931F9202
:10075000CDB7DEB78C01F62E962F907F692F642BD4
:10076000C80149830E94890380E1F89EB0011124E9
:100770004981642BC8010F90DF91CF911F910F9198
:10078000FF900C948903CF93DF93CDB7DEB7289702
:100790000FB6F894DEBF0FBECDBF98E0E9E1F1E0FF
:1007A000DE01119601900D929A95E1F790919B02CE
:1007B000981710F48FEF890FFE013196E80FF11DA5
:1007C000E80FF11D6081606840E083E992E02896BF
:1007D0000FB6F894DEBF0FBECDBFDF91CF910C9462
:1007E000A20340E061E083E992E00E94A2038BE370
:1007F0009FE10197F1F780919C02882319F080E036
:100800000C94C303089541E00E94A20381E090E0AC
:100810000895089580E090E00895009769F0FC0144
:1008200001900020E9F73197AF01481B590BBC013B
:1008300083E992E00C94B00080E090E008950E947B
:100840006C0B0F931F93CF93DF93EC0188819981F9
:10085000009729F02A813B812617370788F48B01FE
:100860006F5F7F4F0E94A20A009761F0998388838F
:100870001B830A832C813D81232B11F4FC01108200
:1008800081E001C080E0DF91CF911F910F91089529
:10089000EF92FF920F931F93CF93DF93EC017B01B5
:1008A0008A01BA010E9421042881398181110DC079
:1008B0002115310519F0C9010E940A0A198218820E
:1008C0001D821C821B821A8206C01D830C83B70105
:1008D000C9010E947A0BCE01DF91CF911F910F9138
:1008E000FF90EF9008951F920F920FB60F92112470
:1008F0002F933F938F939F93AF93BF938091FC016E
:100900009091FD01A091FE01B091FF013091FB019A
:1009100023E0230F2D3720F40196A11DB11D05C042
:1009200026E8230F0296A11DB11D2093FB018093A1
:10093000FC019093FD01A093FE01B093FF01809113
:10094000000290910102A0910202B091030201966F
:10095000A11DB11D8093000290930102A093020299
:10096000B0930302BF91AF919F918F913F912F91CF
:100970000F900FBE0F901F9018951F920F920FB6F9
:100980000F9211242F933F934F935F936F937F9315
:100990008F939F93AF93BF93EF93FF938091B90091
:1009A000887F803609F49CC068F5883209F45BC002
:1009B00090F4803109F454C038F4882309F4F6C067
:1009C000883009F44DC0F6C0883109F44CC080323B
:1009D00009F45DC0EFC0803409F468C048F4803386
:1009E00009F455C0883309F0E5C08093D801D8C018
:1009F000803509F44FC0883509F45DC0883409F0AA
:100A0000D9C0D6C0883909F4C7C0A8F4883709F41A
:100A100067C038F4883609F463C0803709F460C0D1
:100A2000C9C0883809F4B8C0803909F45FC080387B
:100A300009F0C0C05BC0803B09F486C038F4803A3E
:100A400009F466C0883A09F47FC0B4C0803C09F458
:100A5000A7C0883C09F4A4C0883B09F48AC0AAC096
:100A60008091B50110C09091D7018091D60198175F
:100A700070F5E091D70181E08E0F8093D701F0E00F
:100A8000EA54FE4F80818093BB0085EC86C0809342
:100A9000D8018EC0E091D70181E08E0F8093D701FD
:100AA0008091BB00F0E0EA54FE4F80839091D70123
:100AB0008091D6016EC0E091D70181E08E0F8093C6
:100AC000D7018091BB00F0E0EA54FE4F8083809113
:100AD000050281116DC081E08093040284EA61C047
:100AE00083E0809306021092B401CFCF8091B401CD
:100AF000803208F051C0E091B40181E08E0F809304
:100B0000B4018091BB00F0E0EC56FE4F8083BDCF76
:100B100085EC8093BC00109206028091B401803273
:100B200030F4E091B401F0E0EC56FE4F1082609199
:100B3000B40170E0E0919201F091930184E991E0B9
:100B400009951092B40136C084E080930602109299
:100B5000910110929001E0918E01F0918F01099521
:100B600080919001811105C081E0809390011092E5
:100B70006E01E091910181E08E0F80939101F0E090
:100B8000E259FE4F80818093BB009091910180914A
:100B90009001981708F479CF85E88093BC000AC0CB
:100BA00085EC8093BC001092060204C01092D8011C
:100BB0000E946D02FF91EF91BF91AF919F918F9134
:100BC0007F916F915F914F913F912F910F900FBE49
:100BD0000F901F90189510920F0210920E0288EE3F
:100BE00093E0A0E0B0E08093100290931102A093F4
:100BF0001202B093130285E291E090930D0280936C
:100C00000C02109296021092950281E491E090936A
:100C100094028093930210929C0287E28093970241
:100C200084E180939D0284E080939E0210929F0253
:100C300010928E0210928D021092900210928F02EA
:100C4000109292021092910240E050E06DE471E047
:100C50008DE892E00E944804109288021092870268
:100C600010928A021092890210928C0210928B02CA
:100C700044E050E069E471E087E892E00E944804B3
:100C800010921A0210921E0210921D0210921F0260
:100C900087E391E0909319028093180280E090E03E
:100CA000FC01E85EFD4F148E10A2178E11A206966D
:100CB0008C339105A9F783E091E090937B028093B8
:100CC0007A0280E091E090937D0280937C0284E040
:100CD00080937E0283E080937F0287E091E090938F
:100CE0007902809378028AE090E090938102809369
:100CF000800284EF91E090938302809382021092AD
:100D0000860210928502109274021092750210925F
:100D1000760210927702109284020895CF93DF93A7
:100D2000CDB7DEB728970FB6F894DEBF0FBECDBFA4
:100D3000789484B5826084BD84B5816084BD85B5B6
:100D4000826085BD85B5816085BD80916E008160C2
:100D500080936E0010928100809181008260809368
:100D6000810080918100816080938100809180006A
:100D70008160809380008091B10084608093B10095
:100D80008091B00081608093B00080917A0084608F
:100D900080937A0080917A00826080937A008091BB
:100DA0007A00816080937A0080917A0080688093D5
:100DB0007A001092C10010920A0210920902109259
:100DC0000802109207021092060281E08093050249
:100DD0001092040261E082E10E94300161E083E14F
:100DE0000E9430018091B9008E7F8093B90080917C
:100DF000B9008D7F8093B90088E48093B80085E4C2
:100E00008093BC001092980280919E02823018F06C
:100E100098E09093980280939B0262E370E080E0F8
:100E200090E00E94C90160919F0283E992E00E94D4
:100E3000240368EE73E080E090E00E94C90160E363
:100E400083E992E00E9489030BE416E4C80101974C
:100E5000F1F760E383E992E00E948903C8010197FA
:100E6000F1F760E383E992E00E94890383E592E071
:100E70000197F1F760E283E992E00E9489036091B3
:100E80009802606240E083E992E00E94A20384E05D
:100E90008093990240E06CE083E992E00E94A20313
:100EA0000E94F10382E080939A0240E066E083E9C9
:100EB00092E00E94A20340E062E083E992E00E9497
:100EC000A2038BE39FE10197F1F788E080939F02F3
:100ED00060E083E992E00E94240361E08DE00E94DB
:100EE000640180E00E94C3038EE491E00E940D043F
:100EF00081E00E94C30385E591E00E940D0468EE45
:100F000073E080E090E00E94C9010E94F103412C4F
:100F1000512C3201439422242A94322C80E00E94E6
:100F2000C3038AE591E00E940D0481E00E94C3039F
:100F3000409191025091920260918D0270918E02C7
:100F400083E992E00E94B00081E0809384020E94D5
:100F50000302009174021091750220917602309183
:100F60007702AB01BC01401B510B620B730B8091EC
:100F7000800290918102A0E0B0E084179507A60757
:100F8000B70708F009C110E080917E02181760F4DD
:100F9000E0917A02F0917B02E10FF11D62E0808125
:100FA0000E9464011F5FF0CF912C80917F02981600
:100FB00008F062C0E92CF12CE0917C02F0917D02F6
:100FC000EE0DFF1D61E080810E946401E0917C02D2
:100FD000F0917D02EE0DFF1D60E080810E943001E6
:100FE000D301C201092C04C0880F991FAA1FBB1F7F
:100FF0000A94D2F75C016C01C094D094812C80914A
:101000007E02881610F5082D10E080917A029091EA
:101010007B02FC01E00FF11F80810E9404010C5F44
:101020001F4F000F111FF801E85EFD4F892B29F4B7
:10103000808191818A299B2904C0808191818C21A2
:101040009D21918380838394DACFE0917C02F0919B
:101050007D02EE0DFF1D61E080810E9430018091D4
:101060007C0290917D02FC01EE0DFF1D60E080810D
:101070000E946401939499CFE4E3F2E08381948128
:10108000892B21F41082328221821582369682E0E9
:10109000E037F80799F7E12C96E0F92E80917E026F
:1010A000E81608F053C0D12C0E2D10E0000F111FD0
:1010B000005E1D4F20917F02D21608F045C0F80156
:1010C000608171810D2C02C0769567950A94E2F7D4
:1010D00061707727E29E900111242D0D311DE09162
:1010E0007802F0917902E20FF31FA081E8E1F2E0CB
:1010F00080E0458D568D4217530711F461701AC078
:101100008F5F36968A30A9F7672BE1F0E4E3F2E0CF
:1011100080E090E04081411110C0F89EF001F99EFE
:10112000F00D1124E85EFD4FA48F368F258F10A29D
:10113000178E61E00E940F0205C0019636968A3034
:10114000910541F7D394B6CFE394A8CF80E090E027
:1011500010E0FC01E85EFD4F21A1211111E006968F
:101160008C339105B1F70E9403026093740270936F
:1011700075028093760290937702112369F0809133
:101180003902882349F08091370290913802019703
:1011900019F48091340203C01092840280E080939D
:1011A0000B02833209F445C08A3209F44AC01A821C
:1011B00019821C821B821E821D828F831886BE01AB
:1011C000695F7F4FFB0101900020E9F73197AF0184
:1011D000461B570BCE0101960E9448048D819E81CB
:1011E000E980FA800091910210919202E114F104D9
:1011F000E1F00097D1F0080F191FB8018DE892E0D7
:101200000E942104882389F020918D0230918E0262
:101210008091910290919202B701820F931F0E94D8
:101220007A0B109392020093910289819A810E9415
:101230000A0A80E090E0892B09F470CE0E94000039
:101240006DCE40E050E06DE471E08DE892E00E94E8
:1012500048040E94F103EDCF8091870290918802AB
:101260000E940A0A80918D0290918E020C940A0AC3
:101270002F923F924F925F926F927F928F929F92A6
:10128000AF92BF92CF92DF92EF92FF920F931F9394
:10129000CF93DF93CDB7DEB7CA1BDB0B0FB6F89445
:1012A000DEBF0FBECDBF09942A88398848885F8485
:1012B0006E847D848C849B84AA84B984C884DF80F6
:1012C000EE80FD800C811B81AA81B981CE0FD11DDA
:1012D0000FB6F894DEBF0FBECDBFED010895EE0F3F
:1012E000FF1F0590F491E02D0994CF93DF93823096
:1012F000910510F482E090E0E091A202F091A30247
:1013000020E030E0C0E0D0E0309711F14081518121
:1013100048175907C0F04817590761F48281938133
:10132000209719F09B838A832BC09093A30280930C
:10133000A20226C02115310519F04217530718F4EF
:101340009A01BE01DF01EF010280F381E02DDCCFC5
:101350002115310509F1281B390B2430310590F492
:1013600012968D919C9113976115710521F0FB01E7
:101370009383828304C09093A3028093A202FD0111
:10138000329644C0FD01E20FF31F819391932250E6
:1013900031092D933C933AC02091A0023091A102D3
:1013A000232B41F420911501309116013093A102B5
:1013B0002093A002209113013091140121153105D1
:1013C00041F42DB73EB74091170150911801241BED
:1013D000350BE091A002F091A102E217F307A0F40F
:1013E0002E1B3F0B2817390778F0AC014E5F5F4F7B
:1013F0002417350748F04E0F5F1F5093A10240930A
:10140000A0028193919302C0E0E0F0E0CF01DF9170
:10141000CF9108950F931F93CF93DF93009709F413
:101420008CC0FC013297138212820091A2021091AB
:10143000A3020115110581F420813181820F931FD0
:101440002091A0023091A1022817390779F5F09375
:10145000A102E093A00271C0D80140E050E0AE17B5
:10146000BF0750F412962D913C911397AD012115B1
:10147000310509F1D901F3CF9D01DA0133832283CC
:1014800060817181860F971F8217930769F4EC01C1
:1014900028813981260F371F2E5F3F4F31832083EC
:1014A0008A819B8193838283452B29F4F093A30245
:1014B000E093A20242C01396FC93EE931297ED01C3
:1014C000499159919E01240F351FE217F30771F4DA
:1014D00080819181840F951F029611969C938E9323
:1014E0008281938113969C938E931297E0E0F0E0B3
:1014F000D80112968D919C911397009719F0F801DD
:101500008C01F6CF8D919C9198012E5F3F4F820FF9
:10151000931F2091A0023091A1022817390769F486
:10152000309729F41092A3021092A20202C01382F3
:1015300012821093A1020093A002DF91CF911F911C
:101540000F910895A0E0B0E0E8EAFAE00C943C09BD
:10155000EC01009721F4CB010E947509B8C0FC0191
:10156000E60FF71F9C0122503109E217F30708F438
:10157000ACC0D9010D911C91119706171707B0F057
:101580000530110508F49FC0C80104978617970716
:1015900008F499C002501109061B170B019311930F
:1015A0006D937C93CF010E940A0A8DC05B01A01A43
:1015B000B10A4C01800E911EA091A202B091A3022B
:1015C00040E050E0E12CF12C109709F44AC0A81536
:1015D000B905D1F56D907C901197630182E0C80E3A
:1015E000D11CCA14DB0480F1A3014A195B096A010A
:1015F00082E0C80ED11C1296BC9012971396AC9143
:10160000B5E0CB16D10440F0B282A383518340836E
:10161000D9016D937C930AC00E5F1F4FC301800FE9
:10162000911FF90191838083EB2DFA2FE114F104CE
:1016300031F0D7011396FC93EE93129744C0F093C8
:10164000A302E093A2023FC08D919C91119748178D
:10165000590708F4AC017D0112960D90BC91A02DA4
:10166000B3CF8091A0029091A10288159905E1F471
:1016700046175707C8F48091130190911401009701
:1016800041F48DB79EB74091170150911801841B0A
:10169000950BE817F907C8F4F093A102E093A002B4
:1016A000F901718360830FC0CB010E9475097C0131
:1016B000009759F0A801BE010E94710BCE010E9453
:1016C0000A0AC70104C0CE0102C080E090E0CDB795
:1016D000DEB7EEE00C94580981E090E0F8940C94A9
:1016E000810BFB01DC0102C001900D924150504082
:1016F000D8F70895FB01DC0101900D920020E1F77D
:10170000089510E0C2E6D0E004C0FE010E946F0917
:0C1710002196C336D107C9F7F894FFCF2B
:10171C0005060704030208313233343536373839BD
:10172C002A30230000A40280000000400014005462
:10173C000000000000F502C5020A049F02BD02AEC3
:10174C0002A00200000000A00160012D01000000B9
:10175C00000304B0000A04090430303030004B653B
:10176C0079706164005465737400456E7465722001
:0E177C00796F757220416D6D6F756E7400008F
:107E0000112484B714BE81FFF0D085E080938100F7
:107E100082E08093C00088E18093C10086E0809377
:107E2000C20080E18093C4008EE0C9D0259A86E02C
:107E300020E33CEF91E0309385002093840096BBD3
:107E4000B09BFECF1D9AA8958150A9F7CC24DD24C4
:107E500088248394B5E0AB2EA1E19A2EF3E0BF2EE7
:107E6000A2D0813461F49FD0082FAFD0023811F036
:107E7000013811F484E001C083E08DD089C08234E0
:107E800011F484E103C0853419F485E0A6D080C0E4
:107E9000853579F488D0E82EFF2485D0082F10E0AE
:107EA000102F00270E291F29000F111F8ED06801E7
:107EB0006FC0863521F484E090D080E0DECF843638
:107EC00009F040C070D06FD0082F6DD080E0C81688
:107ED00080E7D80618F4F601B7BEE895C0E0D1E017
:107EE00062D089930C17E1F7F0E0CF16F0E7DF06D8
:107EF00018F0F601B7BEE89568D007B600FCFDCFD4
:107F0000A601A0E0B1E02C9130E011968C91119780
:107F100090E0982F8827822B932B1296FA010C0160
:107F200087BEE89511244E5F5F4FF1E0A038BF0790
:107F300051F7F601A7BEE89507B600FCFDCF97BE46
:107F4000E89526C08437B1F42ED02DD0F82E2BD052
:107F50003CD0F601EF2C8F010F5F1F4F84911BD097
:107F6000EA94F801C1F70894C11CD11CFA94CF0C13
:107F7000D11C0EC0853739F428D08EE10CD085E9AC
:107F80000AD08FE07ACF813511F488E018D01DD067
:107F900080E101D065CF982F8091C00085FFFCCF94
:107FA0009093C60008958091C00087FFFCCF809118
:107FB000C00084FD01C0A8958091C6000895E0E648
:107FC000F0E098E1908380830895EDDF803219F02E
:107FD00088E0F5DFFFCF84E1DECF1F93182FE3DFCA
:107FE0001150E9F7F2DF1F91089580E0E8DFEE27F6
:047FF000FF270994CA
:027FFE00040479
:0400000300007E007B
:00000001FF
