:100000000C9463000C947F030C9458030C94A60387
:100010000C94A6030C94A6030C948B000C948B00F8
:100020000C948B000C948B000C948B000C948B0024
:100030000C948B000C948B000C948B000C948B0014
:100040000C940E030C948B000C948B000C948B007E
:100050000C948B000C948B000C948B000C948B00F4
:100060000C9420040C948B00000000002400270056
:100070002A0000000008000201000003040700003D
:1000800000000000000000000000250028002B00F8
:1000900000000000230026002900040404040404D6
:1000A0000404020202020202030303030303010227
:1000B00004081020408001020408102001020408F6
:1000C0001020180D3B0911241FBECFEFD8E0DEBF72
:1000D000CDBF24E0ACE4B3E001C01D92A03FB20765
:1000E000E1F713E0A0E0B1E0E8E0F4E202C005903F
:1000F0000D92AC34B107D9F710E0C2E6D0E004C0ED
:100100002197FE010E94E50FC136D107C9F70E9471
:100110005D090C94F7110C9400003FB7F89480919E
:10012000220490912304A0912404B091250426B5C3
:10013000A89B05C02F3F19F00196A11DB11D3FBF1F
:10014000BA2FA92F982F8827820F911DA11DB11DAD
:10015000BC01CD0142E0660F771F881F991F4A95A9
:10016000D1F70895089520911B0430911C0428179D
:10017000390771F490911A0480911904981741F08D
:10018000E0911A04F0E0E752FC4F808190E008957E
:100190008FEF9FEF089508951F93CF93DF93DC01B6
:1001A0005C962D913C915D972115310539F481E0E4
:1001B00090E013969C938E9312973DC05196ED91CB
:1001C000FC91529750969C915097892F80951FB71C
:1001D0005E964C915E9741FB772770F941FD6095E3
:1001E000F8944081772311F0492B01C048234083C4
:1001F000E9012197F1F748E0508160FF02C0592BD7
:1002000001C058235083E9012197F1F766954150C9
:1002100099F7772321F090818923808303C080811F
:10022000982B90831FBF5C968D919C915D97019751
:10023000F1F721E030E0C901DF91CF911F910895DE
:1002400020911B0430911C042817390771F4809108
:10025000190420911A0490E0805C9F4F821B910941
:1002600060E470E00E94BD0F089580E090E0089582
:1002700020911B0430911C0428173907B9F4909180
:100280001A0480911904981789F0E0911A04F0E09B
:10029000E752FC4F808120911A0430E02F5F3F4FDE
:1002A0002F73332720931A0490E008958FEF9FEF68
:1002B000089585ED8093BC008091BC0084FDFCCF47
:1002C00010922804089540919003262F30E0240FC7
:1002D000311D21323105DCF4209128042430C9F489
:1002E000FC0180E090E0861758F430919003219152
:1002F000DC01A259BC4FA30FB11D2C930196F3CF83
:1003000080919003680F6093900380E0089581E0EE
:10031000089582E00895089581E090E030912C04E2
:1003200020912B04321710F480E090E09195819594
:100330009109089580912C0490912B04891730F431
:100340008F5F80932C0480E090E008958FEF9FEF03
:10035000089580912B0490E020912C04821B910938
:100360000895CF92DF92EF92FF920F931F93CF9356
:10037000DF937C01262F972F8A0180916D038823BC
:1003800091F0C62FD72F6E01C40ED51ECC15DD05FA
:1003900071F06991D701ED91FC910190F081E02D10
:1003A000C7010995F3CF642F822F0E946301C80112
:1003B000DF91CF911F910F91FF90EF90DF90CF9041
:1003C0000895CF93DF931F92CDB7DEB76983209155
:1003D0006D032223D1F020912904203240F021E046
:1003E00030E0FC013383228380E090E015C08091EF
:1003F0002A04E82FF0E0E35BFC4F998190838F5F44
:1004000080932A048093290405C061E0CE010196FF
:100410000E94630181E090E00F90DF91CF910895F9
:10042000089580E090E0089580912D0490912E042D
:10043000A0912F04B09130040196A11DB11D8093AD
:100440002D0490932E04A0932F04B09330040895AC
:10045000862F0C943208833081F028F4813099F093
:100460008230A1F008958730A9F08830B9F0843047
:10047000D1F4809180008F7D03C0809180008F77C0
:1004800080938000089584B58F7702C084B58F7DF6
:1004900084BD08958091B0008F7703C08091B00033
:1004A0008F7D8093B00008951F93CF93DF93282F03
:1004B00030E0F901EE58FF4F8491F901E255FF4F0A
:1004C000D491F901E656FF4FC491CC23C9F0162F01
:1004D00081110E942B02EC2FF0E0EE0FFF1FEA5774
:1004E000FF4FA591B4918FB7F894111105C09C915D
:1004F000ED2FE095E92302C0EC91ED2BEC938FBF3B
:10050000DF91CF911F910895862F642F0C94540290
:10051000CF93DF9390E0FC01E255FF4F2491FC0163
:10052000E656FF4F8491882361F190E0880F991F70
:10053000FC01E859FF4FC591D491FC01EA57FF4FE8
:10054000A591B491611109C09FB7F8948881209555
:1005500082238883EC912E230BC0623061F49FB715
:10056000F8943881822F809583238883EC912E2BF9
:100570002C939FBF06C08FB7F894E8812E2B288359
:100580008FBFDF91CF910895862F642F0C9488023E
:100590008F929F92AF92BF92CF92DF92EF92FF9293
:1005A0006B017C010E948D004B015C01C114D104E0
:1005B000E104F104F1F00E948D00DC01CB01881907
:1005C0009909AA09BB09883E9340A105B10570F3BA
:1005D00021E0C21AD108E108F10888EE880E83E014
:1005E000981EA11CB11CC114D104E104F10419F737
:1005F000DDCFFF90EF90DF90CF90BF90AF909F90B6
:100600008F9008952FB7F89460911E0470911F0485
:1006100080912004909121042FBF08951F920F9282
:100620000FB60F9211242F933F938F939F93AF9305
:10063000BF9380911E0490911F04A0912004B0915B
:10064000210430911D0423E0230F2D3720F401965F
:10065000A11DB11D05C026E8230F0296A11DB11DE5
:1006600020931D0480931E0490931F04A0932004E4
:10067000B09321048091220490912304A09124043A
:10068000B09125040196A11DB11D80932204909381
:100690002304A0932404B0932504BF91AF919F91AC
:1006A0008F913F912F910F900FBE0F901F90189533
:1006B0001F920F920FB60F9211242F933F934F93D7
:1006C0005F936F937F938F939F93AF93BF93EF93BA
:1006D000FF93E0910201F09103010995FF91EF91E1
:1006E000BF91AF919F918F917F916F915F914F914A
:1006F0003F912F910F900FBE0F901F9018951F9252
:100700000F920FB60F9211242F933F934F935F9345
:100710006F937F938F939F93AF93BF93EF93FF93C9
:10072000E0910001F09101010995FF91EF91BF91D6
:10073000AF919F918F917F916F915F914F913F9179
:100740002F910F900FBE0F901F9018951F920F9230
:100750000FB60F9211242F933F934F935F936F9394
:100760007F938F939F93AF93BF93EF93FF93E0910A
:100770001B04F0911C04309709F451C0968DA68596
:10078000B785858591FF04C09C91892329F447C0D2
:100790009C91892309F043C0A389B4899C918589E0
:1007A000809589238C93868997890197F1F7608DCD
:1007B000718DA685B785558538E020E0CB0101977E
:1007C000F1F7822F90E095958795282F4C9145233E
:1007D00009F02068315091F7868D81FD2095809138
:1007E000190490E001968F73992730911A043817F5
:1007F00049F0A0911904B0E0A752BC4F2C9380930C
:10080000190403C0868D8160868F828D938D019738
:10081000F1F7A389B4899C918589892B8C93FF91E9
:10082000EF91BF91AF919F918F917F916F915F9168
:100830004F913F912F910F900FBE0F901F901895E1
:100840001F920F920FB60F9211242F933F934F9345
:100850005F936F937F938F939F93AF93BF93EF9328
:10086000FF938091B900887F803609F49CC068F5B9
:10087000883209F45BC090F4803109F454C038F434
:10088000882309F4F6C0883009F44DC0F6C08831D9
:1008900009F44CC0803209F45DC0EFC0803409F423
:1008A00068C048F4803309F455C0883309F0E5C0C6
:1008B0008093B503D8C0803509F44FC0883509F45A
:1008C0005DC0883409F0D9C0D6C0883909F4C7C0E2
:1008D000A8F4883709F467C038F4883609F463C08F
:1008E000803709F460C0C9C0883809F4B8C08039BD
:1008F00009F45FC0803809F0C0C05BC0803B09F4D8
:1009000086C038F4803A09F466C0883A09F47FC09A
:10091000B4C0803C09F4A7C0883C09F4A4C0883B5B
:1009200009F48AC0AAC08091D80310C09091D7035F
:100930008091D603981770F5E091D70381E08E0F70
:100940008093D703F0E0EA54FC4F80818093BB0092
:1009500085EC86C08093B5038EC0E091D70381E01B
:100960008E0F8093D7038091BB00F0E0EA54FC4FD8
:1009700080839091D7038091D6036EC0E091D70316
:1009800081E08E0F8093D7038091BB00F0E0EA54A2
:10099000FC4F80838091270481116DC081E080939A
:1009A000260484EA61C083E0809328041092B40393
:1009B000CFCF8091B403803208F051C0E091B403EE
:1009C00081E08E0F8093B4038091BB00F0E0EC5681
:1009D000FC4F8083BDCF85EC8093BC00109228042F
:1009E0008091B403803230F4E091B403F0E0EC562F
:1009F000FC4F10826091B40370E0E0919203F0919B
:100A0000930384E993E009951092B40336C084E01F
:100A1000809328041092910310929003E0918E032A
:100A2000F0918F03099580919003811105C081E0B9
:100A30008093900310926E03E091910381E08E0FFA
:100A400080939103F0E0E259FC4F80818093BB00DA
:100A50009091910380919003981708F479CF85E8DD
:100A60008093BC000AC085EC8093BC0010922804DF
:100A700004C01092B5030E945901FF91EF91BF91FC
:100A8000AF919F918F917F916F915F914F913F9126
:100A90002F910F900FBE0F901F901895CF93FC01D0
:100AA000C48121E020936D03C0934C0310922A046B
:100AB000109229048485682B8BE394E00E94E10165
:100AC00080912904813208F046C090912804911148
:100AD000FCCF92E09093280491E0909327049FEF3D
:100AE0009093B5031092D7038093D603ADE4B3E09F
:100AF00026EB33E0F9019E2F921B981718F49D9175
:100B00009193F9CF1092D8038091D803CC0FC82BC2
:100B1000C093D80380912604813061F4109226049A
:100B20008091D8038093BB008091BC0083FDF8CFF7
:100B300085EC01C085EE8093BC0080912804823052
:100B4000E1F38091B5038F3F31F08091B50380329E
:100B500011F08091B50310922A041092290410928A
:100B60006D03CF9108950F931F93CF938C01C62FE0
:100B70000E944E056C2F6460C8010E944E056C2FC8
:100B80006B7FC8010E944E0583EC90E00197F1F75E
:100B9000CF911F910F910895FF920F931F93CF93C1
:100BA000DF931F92CDB7DEB78C01F62E962F907F84
:100BB000692F642BC80149830E94B30580E1F89E28
:100BC000B00111244981642BC8010F90DF91CF91AE
:100BD0001F910F91FF900C94B30541E00E94CC054A
:100BE00081E090E008954F925F926F927F928F9292
:100BF0009F92AF92BF92CF92DF92EF92FF920F93AC
:100C00001F93CF93DF93CDB7DEB728970FB6F89435
:100C1000DEBF0FBECDBF81E08093BD040E94020302
:100C20000091AD041091AE042091AF043091B00456
:100C3000AB01BC01401B510B620B730B8091B904DB
:100C40009091BA04A0E0B0E084179507A607B70713
:100C500008F00EC110E08091B704181760F4E0911D
:100C6000B304F091B404E10FF11D62E080810E94B1
:100C700088021F5FF0CF912C412C512C32014394FC
:100C80008091B804981608F061C0E92CF12CE0912D
:100C9000B504F091B604EE0DFF1D61E080810E9465
:100CA0008802E091B504F091B604EE0DFF1D60E0FE
:100CB00080810E945402D301C201092C04C0880F14
:100CC000991FAA1FBB1F0A94D2F75C016C01C09444
:100CD000D094812C8091B704881608F5082D10E077
:100CE000E091B304F091B404E00FF11F80810E9401
:100CF00032080C5F1F4F000F111FF801EF5AFB4F16
:100D0000892B29F4808191818A299B2904C08081C3
:100D100091818C219D21918380838394DBCFE0910D
:100D2000B504F091B604EE0DFF1D61E080810E94D4
:100D300054028091B5049091B604FC01EE0DFF1DA4
:100D400060E080810E94880293949ACFEDE6F4E0FF
:100D50008FEF9FEF23813481232B21F41082928324
:100D600081831582369624E0E93AF20799F7E12C5F
:100D700096E0F92E8091B704E81608F053C0D12C04
:100D80000E2D10E0000F111F075A1B4F2091B804C1
:100D9000D21608F045C0F801608171810D2C02C0A7
:100DA000769567950A94E2F761707727E29E900145
:100DB00011242D0D311DE091B104F091B204E20F28
:100DC000F31F4081E1E5F4E080E0A58DB68DA21728
:100DD000B30711F461701AC08F5F36968A30A9F795
:100DE000672BE1F0EDE6F4E080E090E050815111F6
:100DF00010C0F89EF001F99EF00D1124EF5AFB4F40
:100E0000448F368F258F10A2178E61E00E94D30881
:100E100005C0019636968A30910541F7D394B6CF36
:100E2000E394A8CF80E090E010E0FC01EF5AFB4F84
:100E300021A1211111E006968C339105B1F70E9492
:100E400002036093AD047093AE048093AF0490935B
:100E5000B004112369F080917204882349F08091D5
:100E6000700490917104019719F480916D0403C08E
:100E70001092BD0480E0809331048332E1F18A3224
:100E8000D1F11A8219821C821B821E821D828F83DD
:100E90001886BE01695F7F4FCE0101960E9411083E
:100EA0008D819E81E980FA8000914F041091500459
:100EB000E114F104E1F00097D1F0080F191FB80117
:100EC0008BE494E00E94BF07882389F020914B04B3
:100ED00030914C0480914F0490915004B701820FDF
:100EE000931F0E94F0111093500400934F048981C6
:100EF0009A810E94801028960FB6F894DEBF0FBE2C
:100F0000CDBFDF91CF911F910F91FF90EF90DF90B8
:100F1000CF90BF90AF909F908F907F906F905F9099
:100F20004F900895CF92DF92EF92FF920F931F930D
:100F3000CF93DF936C017A018B01C0E0D0E0CE1536
:100F4000DF0589F0D8016D918D01D601ED91FC91FD
:100F50000190F081E02DC6010995892B11F47E01E5
:100F600002C02196ECCFC701DF91CF911F910F9165
:100F7000FF90EF90DF90CF9008950E94E2110F93C1
:100F80001F93CF93DF93EC0188819981009729F01B
:100F90002A813B812617370788F48B016F5F7F4FCB
:100FA0000E941811009761F0998388831B830A833C
:100FB0002C813D81232B11F4FC01108281E001C0C2
:100FC00080E0DF91CF911F910F910895EF92FF92F2
:100FD0000F931F93CF93DF93EC017B018A01BA013A
:100FE0000E94BF072881398181110DC0211531056B
:100FF00019F0C9010E948010198218821D821C827A
:101000001B821A8206C01D830C83B701C9010E948E
:10101000F011CE01DF91CF911F910F91FF90EF90D2
:101020000895CF93DF93EC016115710559F0FB0131
:1010300001900020E9F73197AF01461B570B0E9442
:10104000E6070CC088819981009711F00E948010FA
:10105000198218821D821C821B821A82CE01DF91A6
:10106000CF910895CF93DF93282F30E0F901EE5808
:10107000FF4F8491F901E255FF4FD491F901E656F3
:10108000FF4FC491CC2391F081110E942B02EC2FD1
:10109000F0E0EE0FFF1FE057FF4FA591B491EC91E8
:1010A000ED2381E090E021F480E002C080E090E058
:1010B000DF91CF91089596E0899FD0011124AF5A16
:1010C000BB4F90967C936E935F9791E091969C9323
:1010D00091979091BD04E091BE04F091BF049923D3
:1010E00039F0309751F0811108C080916D0404C02F
:1010F000309719F05C968C9109940895CF93DF9303
:10110000CDB7DEB728970FB6F894DEBF0FBECDBFC0
:1011100028E0EDE1F1E0DE01119601900D922A95B3
:10112000E1F72091C804261710F46FEF620FFE015B
:101130003196E60FF11DE60FF11D9081682F690FC2
:10114000606840E080EC94E028960FB6F894DEBF2B
:101150000FBECDBFDF91CF910C94CC0540E061E094
:1011600080EC94E00E94CC058BE39FE10197F1F7BE
:101170008091C904882321F060E080E00C947E080F
:101180000895009769F0FC0101900020E9F731977C
:10119000AF01481B590BBC0180EC94E00C94920702
:1011A00080E090E008950F931F93CF93DF93C82FB3
:1011B000D62F86E0C89FF0011124EF5AFB4F11A2F1
:1011C000878D90A181309105F1F01CF4892B49F0B5
:1011D00043C082309105A9F10397F1F560E070E01A
:1011E00034C06623C9F161E070E08C2F0E945B0877
:1011F0000E9402036093A9047093AA048093AB0435
:101200009093AC0429C00E9402030091A90410919C
:10121000AA042091AB043091AC04AB01BC01401B8B
:10122000510B620B730B8091BB049091BC04A0E046
:10123000B0E084179507A607B70718F462E070E0DE
:1012400004C0D11109C063E070E08C2FDF91CF9111
:101250001F910F910C945B08DF91CF911F910F911B
:101260000895EBE4F4E0448155816081718180EC64
:1012700094E00C94920780914B0490914C040E944E
:10128000801081E591E09093CE048093CD0480910D
:101290001B0490911C048D5C944071F4E091E00477
:1012A000F091E10490818091E2048095892380830C
:1012B00010921C0410921B040895789484B58260E7
:1012C00084BD84B5816084BD85B5826085BD85B5EA
:1012D000816085BD80916E00816080936E00109268
:1012E00081008091810082608093810080918100E3
:1012F0008160809381008091800081608093800074
:101300008091B10084608093B1008091B0008160D1
:101310008093B00080917A00846080937A008091FD
:101320007A00826080937A0080917A008160809355
:101330007A0080917A00806880937A001092C100D0
:1013400010922C0410922B0410922A04109229045B
:101350001092280481E0809327041092260461E013
:1013600082E10E94540261E083E10E945402809174
:10137000B9008E7F8093B9008091B9008D7F8093F2
:10138000B90088E48093B80085E48093BC00109293
:10139000C5048091CB04823018F098E09093C50486
:1013A0008093C80462E370E080E090E00E94C8028D
:1013B0006091CC0480EC94E00E944E0568EE73E0EE
:1013C00080E090E00E94C80260E380EC94E00E941C
:1013D000B305CBE4D6E4CE010197F1F760E380ECEE
:1013E00094E00E94B3052197F1F760E380EC94E06C
:1013F0000E94B30583E592E00197F1F760E280EC8B
:1014000094E00E94B3056091C504606240E080EC06
:1014100094E00E94CC0584E08093C60440E06CE038
:1014200080EC94E00E94CC050E94AE0882E080939C
:10143000C70440E066E080EC94E00E94CC0540E008
:1014400062E080EC94E00E94CC058BE39FE1019781
:10145000F1F788E08093CC0460E080EC94E00E9497
:101460004E0560E082E00E94880261E086E00E9412
:10147000880261E08AE00E94880262E08BE00E94BC
:10148000880261E088E00E94880262E087E00E94B2
:10149000880262E089E00E94880262E081E00E94A6
:1014A000880261E086E00E94540284E192E0909319
:1014B000010180930001809169008360809369003D
:1014C000E89A60E080E00E947E088FE591E00E944B
:1014D000C10861E080E00E947E0884E791E00E94FC
:1014E000C10862E080E00E947E0889E891E00E94E5
:1014F000C10863E080E00E947E088EE991E00E94CE
:10150000C10868EB7BE080E090E00E94C8020E9486
:10151000AE08C0E0D0E081E00E943208892B79F467
:101520008091320490913304019690933304809318
:10153000320464E670E080E090E00E94C80280918E
:10154000320490913304892B01F560E080E00E9421
:101550007E0883EB91E00E94C10861E080E00E9478
:101560007E0888EC91E00E94C10862E080E00E9461
:101570007E0887ED91E00E94C10863E080E00E9450
:101580007E088CEE91E00E94C10880913204909117
:101590003304019701F560E080E00E947E0883EB50
:1015A00091E00E94C10861E080E00E947E0881E035
:1015B00092E00E94C10862E080E00E947E0881E122
:1015C00092E00E94C10863E080E00E947E0886E20B
:1015D00092E00E94C10880913204909133040297F6
:1015E00021F410923304109232040E94F30580918A
:1015F0003104813331F080913104823309F03FC1ED
:101600000FC16AE372E08BE494E00E9411080E942B
:10161000AE0860E080E00E947E088BE392E00E94CA
:10162000C10861E080E00E947E0880E592E00E94AF
:10163000C10862E082E00E947E0885E692E00E9496
:10164000C10862E08DE00E947E088CE692E00E9474
:10165000C10860E086E00E94540281E08093370474
:101660000E9402030091470410914804209149040C
:1016700030914A04DC01CB01801B910BA20BB30B10
:10168000853F9140A105B105E0F060912D04709176
:101690002E0480912F04909130040E94570E28E967
:1016A0003EE64AE250E40E94920E20E030E04AE733
:1016B00054E40E94920E0E94870F70933504609349
:1016C00034040E94F30562E089E00E947E080E94D3
:1016D000310962E080E00E947E08809131048A3204
:1016E00061F50E94AE0860E080E00E947E088BE316
:1016F00092E00E94C10861E080E00E947E0880E5DF
:1017000092E00E94C10862E082E00E947E0885E6C5
:1017100092E00E94C10862E08DE00E947E088CE6A3
:1017200092E00E94C10860E086E00E9454026AE3F1
:1017300072E08BE494E00E941108809131048332BE
:1017400039F461E086E00E94540281E0809336041F
:1017500080914B0490914C040097E9F10E94190E7E
:101760006233710581059105B4F16AE372E08BE49F
:1017700094E00E94110810923504109234041092E3
:101780002D0410922E0410922F04109230040E9407
:10179000AE0861E080E00E947E0881E792E00E944E
:1017A000C10862E080E00E947E0886E892E00E9424
:1017B000C10860E086E00E94540261E08AE00E9475
:1017C000540268EB7BE080E090E00E94C80260E099
:1017D0008AE00E94540287E00E943208892B71F44B
:1017E00061E088E00E94540268EB7BE080E090E0DA
:1017F0000E94C80260E088E00E9454028BE00E94D0
:101800003208892B41F40E94AE081092370461E03F
:1018100086E00E94540280913704811121CFEBCEE3
:101820006AE372E08BE494E00E9411080E94AE0823
:1018300060E080E00E947E088CE992E00E94C1088E
:1018400061E080E00E947E0882EB92E00E94C10885
:1018500062E080E00E947E088DEB92E00E94C10869
:1018600063E080E00E947E0887EC92E00E94C1085D
:1018700081E08093380480913804811106C0809102
:101880003104833309F04DC053C00E94F30561E079
:1018900088E00E947E080E943109809131048A32DA
:1018A00041F50E94AE0860E080E00E947E088CE96D
:1018B00092E00E94C10861E080E00E947E0882EB15
:1018C00092E00E94C10862E080E00E947E088DEBF9
:1018D00092E00E94C10863E080E00E947E0887ECED
:1018E00092E00E94C1086AE372E08BE494E00E94F7
:1018F00011088BE00E943208892B09F0BCCF0E94AE
:10190000AE0810923804B7CF8BE00E943208892BC2
:1019100021F40E94AE08109239048091390481119B
:101920002AC089E00E943208892B09F443C07AC09A
:101930006AE372E08BE494E00E9411080E94AE0812
:1019400060E080E00E947E0881ED92E00E94C10884
:1019500061E080E00E947E0885EE92E00E94C1086E
:1019600062E080E00E947E0889EF92E00E94C10858
:1019700081E0809339040E94F30580913104813322
:1019800019F66AE372E08BE494E00E9411080E9469
:10199000AE0860E080E00E947E088DE093E00E9447
:1019A000C1080E94F30561E080E00E947E080E9469
:1019B0003109F7CF81E080933A040E94AE0860E0DD
:1019C00080E00E947E088BE392E00E94C10861E003
:1019D00080E00E947E0882E293E00E94C10862E0FB
:1019E00080E00E947E0887E393E00E94C10861E0E6
:1019F0008AE00E9454026CE271E080E090E00E9474
:101A0000C80289E00E943208019741F40E94AE08A2
:101A100060E08AE00E94540210923A0480913A04F5
:101A20008111CBCF209709F476CD0E94000073CDB1
:101A300010923E0410923D0488EE93E0A0E0B0E0E6
:101A400080933F0490934004A0934104B0934204D8
:101A500029E231E030933C0420933B041092D004FF
:101A60001092CF048093D1049093D204A093D30416
:101A7000B093D40481E591E09093CE048093CD049B
:101A80001092E4041092E3041092E6041092E5042C
:101A90001092E8041092E7041092EA041092E9040C
:101AA0006091EB046E7F6D7F6093EB0466956170CF
:101AB00081E068278CE00E94540261E08CE00E9483
:101AC0008802EAEBF0E0E491E093DD04E6EAF0E07E
:101AD000E491F0E0EE0FFF1FEA57FF4F85919491DC
:101AE0009093DF048093DE0460E08DE00E94880222
:101AF0008091EB0481FD04C061E08DE00E945402FE
:101B00008DE08093D904EBEBF0E0E491E093DA040C
:101B1000E7EAF0E0E491F0E0EE0FFF1FE057FF4F3F
:101B2000859194919093DC048093DB041092C3041C
:101B30001092C20485E491E09093C1048093C004A4
:101B40001092C90487E28093C40484E18093CA049C
:101B500084E08093CB041092CC0410925304109232
:101B6000570410925604109258048BE391E090931E
:101B700052048093510480E090E0FC01EF5AFB4F47
:101B8000148E10A2178E11A206968C339105A9F718
:101B900087E091E09093B4048093B30484E091E0F3
:101BA0009093B6048093B50484E08093B70483E0F7
:101BB0008093B8048BE091E09093B2048093B104D9
:101BC0008AE090E09093BA048093B90484EF91E0A6
:101BD0009093BC048093BB041092BF041092BE0487
:101BE0001092AD041092AE041092AF041092B004A3
:101BF0001092BD0410924C0410924B0410924E04AB
:101C000010924D041092500410924F0440E050E0A6
:101C10006AE372E08BE494E00E94E6070E9402030C
:101C200060934704709348048093490490934A0456
:101C300008951F93FC0199278827BC01E89411910E
:101C40001032E9F3193010F01E30C8F31B3251F096
:101C50001D3249F4689406C00E94400E610F711D48
:101C6000811D911D119110531A30B0F33EF49095DF
:101C70008095709561957F4F8F4F9F4F1F9108956D
:101C8000592F482F372F262F660F771F881F991F30
:101C9000660F771F881F991F620F731F841F951F80
:101CA000660F771F881F991F0895E89409C097FB56
:101CB0003EF490958095709561957F4F8F4F9F4F23
:101CC0009923A9F0F92F96E9BB279395F695879567
:101CD00077956795B795F111F8CFFAF4BB0F11F42A
:101CE00060FF1BC06F5F7F4F8F4F9F4F16C08823D1
:101CF00011F096E911C0772321F09EE8872F762F07
:101D000005C0662371F096E8862F70E060E02AF047
:101D10009A95660F771F881FDAF7880F9695879533
:101D200097F908950E94A50E0C94160F0E94080FB3
:101D300038F00E940F0F20F0952311F00C94FF0E45
:101D40000C94050F11240C944A0F0E94270F70F376
:101D5000959FC1F3950F50E0551F629FF001729F50
:101D6000BB27F00DB11D639FAA27F00DB11DAA1F5F
:101D7000649F6627B00DA11D661F829F2227B00DAC
:101D8000A11D621F739FB00DA11D621F839FA00D37
:101D9000611D221F749F3327A00D611D231F849F87
:101DA000600D211D822F762F6A2F11249F575040DE
:101DB0009AF0F1F088234AF0EE0FFF1FBB1F661F59
:101DC000771F881F91505040A9F79E3F510580F022
:101DD0000C94FF0E0C944A0F5F3FE4F3983ED4F34B
:101DE000869577956795B795F795E7959F5FC1F7C6
:101DF000FE2B880F911D9695879597F9089597F971
:101E00009F6780E870E060E008959FEF80EC0895A0
:101E100000240A94161617061806090608950024C9
:101E20000A9412161306140605060895092E039443
:101E3000000C11F4882352F0BB0F40F4BF2B11F4B7
:101E400060FF04C06F5F7F4F8F4F9F4F089557FD16
:101E50009058440F551F59F05F3F71F04795880F18
:101E600097FB991F61F09F3F79F0879508951216AF
:101E700013061406551FF2CF4695F1DF08C016165B
:101E800017061806991FF1CF86957105610508940C
:101E90000895E894BB2766277727CB0197F9089523
:101EA0002F923F924F925F926F927F928F929F926A
:101EB000AF92BF92CF92DF92EF92FF920F931F9358
:101EC000CF93DF93CDB7DEB7CA1BDB0B0FB6F89409
:101ED000DEBF0FBECDBF09942A88398848885F8449
:101EE0006E847D848C849B84AA84B984C884DF80BA
:101EF000EE80FD800C811B81AA81B981CE0FD11D9E
:101F00000FB6F894DEBF0FBECDBFED0108950E945D
:101F10008E0F6894B1110C944A0F08950E942F0FF0
:101F200088F09F5798F0B92F9927B751B0F0E1F09A
:101F3000660F771F881F991F1AF0BA95C9F714C04A
:101F4000B13091F00E94490FB1E008950C94490F0F
:101F5000672F782F8827B85F39F0B93FCCF3869583
:101F600077956795B395D9F73EF4909580957095E0
:101F700061957F4F8F4F9F4F089597FB072E16F463
:101F8000009407D077FD09D00E94D10F07FC05D03F
:101F90003EF4909581959F4F0895709561957F4F80
:101FA0000895AA1BBB1B51E107C0AA1FBB1FA617A0
:101FB000B70710F0A61BB70B881F991F5A95A9F7F2
:101FC00080959095BC01CD010895EE0FFF1F0590FF
:101FD000F491E02D0994CF93DF938230910510F4B2
:101FE00082E090E0E091EE04F091EF0420E030E038
:101FF000C0E0D0E0309711F1408151814817590776
:10200000C0F04817590761F482819381209719F035
:102010009B838A832BC09093EF048093EE0426C0A9
:102020002115310519F04217530718F49A01BE0122
:10203000DF01EF010280F381E02DDCCF21153105B6
:1020400009F1281B390B2430310590F412968D913B
:102050009C9113976115710521F0FB019383828395
:1020600004C09093EF048093EE04FD01329644C0C7
:10207000FD01E20FF31F81939193225031092D93BB
:102080003C933AC02091EC043091ED04232B41F4B1
:102090002091190130911A013093ED042093EC0442
:1020A00020911701309118012115310541F42DB708
:1020B0003EB740911B0150911C01241B350BE09150
:1020C000EC04F091ED04E217F307A0F42E1B3F0B94
:1020D0002817390778F0AC014E5F5F4F241735079A
:1020E00048F04E0F5F1F5093ED044093EC04819332
:1020F000919302C0E0E0F0E0CF01DF91CF9108952D
:102100000F931F93CF93DF93009709F48CC0FC01CA
:102110003297138212820091EE041091EF040115A0
:10212000110581F420813181820F931F2091EC04ED
:102130003091ED042817390779F5F093ED04E09319
:10214000EC0471C0D80140E050E0AE17BF0750F476
:1021500012962D913C911397AD012115310509F18E
:10216000D901F3CF9D01DA0133832283608171812C
:10217000860F971F8217930769F4EC012881398134
:10218000260F371F2E5F3F4F318320838A819B812B
:1021900093838283452B29F4F093EF04E093EE04BC
:1021A00042C01396FC93EE931297ED014991599119
:1021B0009E01240F351FE217F30771F4808191818E
:1021C000840F951F029611969C938E938281938122
:1021D00013969C938E931297E0E0F0E0D80112964C
:1021E0008D919C911397009719F0F8018C01F6CF0F
:1021F0008D919C9198012E5F3F4F820F931F2091EC
:10220000EC043091ED042817390769F4309729F46C
:102210001092EF041092EE0402C013821282109307
:10222000ED040093EC04DF91CF911F910F9108957D
:10223000A0E0B0E0EEE1F1E10C94540FEC01009766
:1022400021F4CB010E94EB0FB8C0FC01E60FF71F91
:102250009C0122503109E217F30708F4ACC0D90100
:102260000D911C91119706171707B0F00530110555
:1022700008F49FC0C80104978617970708F499C00F
:1022800002501109061B170B019311936D937C9358
:10229000CF010E9480108DC05B01A01AB10A4C01D1
:1022A000800E911EA091EE04B091EF0440E050E04A
:1022B000E12CF12C109709F44AC0A815B905D1F505
:1022C0006D907C901197630182E0C80ED11CCA14F6
:1022D000DB0480F1A3014A195B096A0182E0C80EA0
:1022E000D11C1296BC9012971396AC91B5E0CB1608
:1022F000D10440F0B282A38351834083D9016D930E
:102300007C930AC00E5F1F4FC301800F911FF9011C
:1023100091838083EB2DFA2FE114F10431F0D70182
:102320001396FC93EE93129744C0F093EF04E0935E
:10233000EE043FC08D919C9111974817590708F4FE
:10234000AC017D0112960D90BC91A02DB3CF809170
:10235000EC049091ED0488159905E1F446175707B0
:10236000C8F48091170190911801009741F48DB73E
:102370009EB740911B0150911C01841B950BE817DF
:10238000F907C8F4F093ED04E093EC04F9017183CC
:1023900060830FC0CB010E94EB0F7C01009759F0C6
:1023A000A801BE010E94E711CE010E948010C70162
:1023B00004C0CE0102C080E090E0CDB7DEB7EEE011
:1023C0000C94700F81E090E0F8940C94F711FB01ED
:1023D000DC0102C001900D9241505040D8F70895A1
:1023E000FB01DC0101900D920020E1F7089510E05F
:1023F000C2E6D0E004C0FE010E94E50F2196C3367C
:08240000D107C9F7F894FFCFE2
:10240800B200B200100F0E11030405313233343517
:10241800363738392A30230000F0048000000040A5
:10242800001400540000000000E101B10111028B0A
:1024380001A9019A018C0100000000C4028402284D
:102448000200000000ED05920711021002000000D2
:1024580000CC0092071102CB0020013801B3002AFA
:102468002D4941545420436F6D70616E79204C742E
:10247800642D2A002020202A2D4465616C73207762
:102488006974682D2A202020003E456C65637472AB
:102498006F6E6963205365727669636573003E45A4
:1024A8006C656374726963616C20536572766963E5
:1024B800657300426F6E79657A612043686167755C
:1024C8006F20204C616B6F0020313A4B7570696D3D
:1024D80061204D616A690020323A416C61726D2059
:1024E8007961204368616E6A6F20200020333A4D7D
:1024F80070616E67696C696F207761206D756461C2
:102508000020343A4B7573657469204E616D6261C1
:102518000020353A4B69617369206368612043681C
:10252800616B756C61002020202020202020202055
:1025380020202020202020202020003E3E3E3E3E1D
:102548003E3E3E3E3E3C3C3C3C3C3C3C3C3C3C00F5
:102558002057656B61206B6961736920636861202E
:102568004D616A69006B696173693A004C6974610D
:1025780000205570696D616A6920556D656B616DE4
:10258800696C696B6100202020202D57656B6120E4
:102598004368616E6A6F2D202020200043686167C0
:1025A80075612041696E61207961204368616E6AB6
:1025B8006F0020313A47756D626F726F0020323AB2
:1025C8004B69646572690020333A4B6966616661DC
:1025D80000202D4D70616E67696C696F20776120EE
:1025E8004D64612D002020313A4B7574756D696B0F
:1025F80061206368616E6A6F002020323A4A616D1B
:10260800626F206C61205A616C756C61002D2D41E0
:102618006E64696B61206D7564612057616B6F2D05
:102628002D002D2D2D4B6961736920636861204D44
:10263800616A692D2D2D00204B69646F676F206BCF
:0C2648007761204D6174756D697A69003E
:107E0000112484B714BE81FFF0D085E080938100F7
:107E100082E08093C00088E18093C10086E0809377
:107E2000C20080E18093C4008EE0C9D0259A86E02C
:107E300020E33CEF91E0309385002093840096BBD3
:107E4000B09BFECF1D9AA8958150A9F7CC24DD24C4
:107E500088248394B5E0AB2EA1E19A2EF3E0BF2EE7
:107E6000A2D0813461F49FD0082FAFD0023811F036
:107E7000013811F484E001C083E08DD089C08234E0
:107E800011F484E103C0853419F485E0A6D080C0E4
:107E9000853579F488D0E82EFF2485D0082F10E0AE
:107EA000102F00270E291F29000F111F8ED06801E7
:107EB0006FC0863521F484E090D080E0DECF843638
:107EC00009F040C070D06FD0082F6DD080E0C81688
:107ED00080E7D80618F4F601B7BEE895C0E0D1E017
:107EE00062D089930C17E1F7F0E0CF16F0E7DF06D8
:107EF00018F0F601B7BEE89568D007B600FCFDCFD4
:107F0000A601A0E0B1E02C9130E011968C91119780
:107F100090E0982F8827822B932B1296FA010C0160
:107F200087BEE89511244E5F5F4FF1E0A038BF0790
:107F300051F7F601A7BEE89507B600FCFDCF97BE46
:107F4000E89526C08437B1F42ED02DD0F82E2BD052
:107F50003CD0F601EF2C8F010F5F1F4F84911BD097
:107F6000EA94F801C1F70894C11CD11CFA94CF0C13
:107F7000D11C0EC0853739F428D08EE10CD085E9AC
:107F80000AD08FE07ACF813511F488E018D01DD067
:107F900080E101D065CF982F8091C00085FFFCCF94
:107FA0009093C60008958091C00087FFFCCF809118
:107FB000C00084FD01C0A8958091C6000895E0E648
:107FC000F0E098E1908380830895EDDF803219F02E
:107FD00088E0F5DFFFCF84E1DECF1F93182FE3DFCA
:107FE0001150E9F7F2DF1F91089580E0E8DFEE27F6
:047FF000FF270994CA
:027FFE00040479
:0400000300007E007B
:00000001FF
