:100000000C9463000C9481040C945A040C94ED0439
:100010000C94ED040C94ED040C948B000C948B0068
:100020000C948B000C948B000C948B000C948B0024
:100030000C948B000C948B000C948B000C948B0014
:100040000C9410040C948B000C94630B0C943D0BDB
:100050000C948B000C948B000C948B000C948B00F4
:100060000C947D050C948B000000000024002700F8
:100070002A0000000008000201000003040700003D
:1000800000000000000000000000250028002B00F8
:1000900000000000230026002900040404040404D6
:1000A0000404020202020202030303030303010227
:1000B00004081020408001020408102001020408F6
:1000C0001020EF0F2E0C11241FBECFEFD8E0DEBFA3
:1000D000CDBF12E0A0E0B1E0EEE7F8E202C005908B
:1000E0000D92A834B107D9F724E0A8E4B2E001C02A
:1000F0001D92A233B207E1F710E0C2E6D0E004C0DF
:100100002197FE010E94FB11C136D107C9F70E9459
:100110003C0C0C9432140C940000FC01538D448D63
:10012000252F30E0842F90E0821B930B541710F0A2
:10013000CF96089501970895FC01918D828D9817AF
:1001400061F0828DDF01A80FB11D5D968C91928DBB
:100150009F5F9F73928F90E008958FEF9FEF0895B8
:10016000FC01918D828D981731F0828DE80FF11D81
:10017000858D90E008958FEF9FEF0895FC01918D9C
:10018000228D892F90E0805C9F4F821B91098F7395
:100190009927089580E090E0892B29F00E94610A58
:1001A00081110C9400000895833081F028F481308F
:1001B00099F08230A1F008958730A9F08830B9F025
:1001C0008430D1F4809180008F7D03C080918000C5
:1001D0008F7780938000089584B58F7702C084B5AF
:1001E0008F7D84BD08958091B0008F7703C080918A
:1001F000B0008F7D8093B0000895CF93DF93282FB8
:1002000030E0F901EE58FF4F8491F901E255FF4FBC
:10021000D491F901E656FF4FC491CC2391F081119E
:100220000E94D400EC2FF0E0EE0FFF1FE057FF4FCD
:10023000A591B491EC91ED2381E090E021F480E070
:1002400002C080E090E0DF91CF9108953FB7F8942D
:1002500080912B0390912C03A0912D03B0912E033C
:1002600026B5A89B05C02F3F19F00196A11DB11D11
:100270003FBFBA2FA92F982F8827820F911DA11D4C
:10028000B11DBC01CD0142E0660F771F881F991F89
:100290004A95D1F708950895DC0118967C936E93E2
:1002A000179781E053968C9353971E96ED91FC918E
:1002B0001F97309719F019968C9109940895209101
:1002C0003803309139032817390771F490913603B8
:1002D00080913703981741F0E0913603F0E0EA513E
:1002E000FD4F808190E008958FEF9FEF089508956E
:1002F0001F93CF93DF93DC015C962D913C915D972A
:100300002115310539F481E090E013969C938E938A
:1003100012973DC05196ED91FC91529750969C9149
:100320005097892F80951FB75E964C915E9741FB41
:10033000772770F941FD6095F8944081772311F09B
:10034000492B01C048234083E9012197F1F748E098
:10035000508160FF02C0592B01C058235083E9012E
:100360002197F1F76695415099F7772321F0908115
:100370008923808303C08081982B90831FBF5C9664
:100380008D919C915D970197F1F721E030E0C901D3
:10039000DF91CF911F910895209138033091390357
:1003A0002817390771F4809137032091360390E0C4
:1003B000805C9F4F821B910960E470E00E94CC1129
:1003C000089580E090E0089520913803309139033A
:1003D00028173907B9F4909136038091370398179D
:1003E00089F0E0913603F0E0EA51FD4F80812091E1
:1003F000360330E02F5F3F4F2F73332720933603B0
:1004000090E008958FEF9FEF089585ED8093BC00F5
:100410008091BC0084FDFCCF10923103089540917F
:100420009D02262F30E0240F311D21323105DCF4EE
:10043000209131032430C9F4FC0180E090E086175C
:1004400058F430919D022191DC01A558BD4FA30FB6
:10045000B11D2C930196F3CF80919D02680F60939C
:100460009D0280E0089581E0089582E00895089556
:1004700081E090E03091350320913403321710F47D
:1004800080E090E0919581959109089580913503E0
:1004900090913403891730F48F5F8093350380E0A7
:1004A00090E008958FEF9FEF08958091340390E0DE
:1004B00020913503821B91090895CF92DF92EF922C
:1004C000FF920F931F93CF93DF937C01262F972FDB
:1004D0008A0180917A02882391F0C62FD72F6E016E
:1004E000C40ED51ECC15DD0571F06991D701ED91D3
:1004F000FC910190F081E02DC7010995F3CF642FA5
:10050000822F0E940F02C801DF91CF911F910F919E
:10051000FF90EF90DF90CF900895CF93DF931F92DD
:10052000CDB7DEB7698320917A022223D1F02091E2
:100530003203203240F021E030E0FC01338322839B
:1005400080E090E015C080913303E82FF0E0E65A98
:10055000FD4F998190838F5F8093330380933203A3
:1005600005C061E0CE0101960E940F0281E090E09B
:100570000F90DF91CF910895089580E090E0089565
:100580008091540290915502A0915602B091570269
:100590000196A11DB11D8093540290935502A09322
:1005A0005602B09357020895FC01848DDF01A80F15
:1005B000B11DA35ABF4F2C91848D90E001968F738B
:1005C0009927848FA689B7892C93A089B1898C91AA
:1005D00080648C93938D848D981306C00288F38970
:1005E000E02D80818F7D80830895EF92FF920F939D
:1005F0001F93CF93DF93EC0181E0888F9B8D8C8DCF
:10060000981305C0E889F989808185FD24C0F62EFC
:100610000B8D10E00F5F1F4F0F731127E02E8C8D95
:10062000E8120CC00FB607FCFACFE889F98980817F
:1006300085FFF5CFCE010E94D402F1CF8B8DFE0154
:10064000E80FF11DE35AFF4FF0820B8FEA89FB8917
:100650008081806207C0EE89FF896083E889F9891B
:1006600080818064808381E090E0DF91CF911F9151
:100670000F91FF90EF900895CF93DF93EC01888D59
:100680008823C9F0EA89FB89808185FD05C0A88996
:10069000B9898C9186FD0FC00FB607FCF5CF80811C
:1006A00085FFF2CFA889B9898C9185FFEDCFCE0166
:1006B0000E94D402E7CFDF91CF9108951F93CF938B
:1006C000DF93282F30E0F901EE58FF4F8491F901B4
:1006D000E255FF4FD491F901E656FF4FC491CC2368
:1006E000C9F0162F81110E94D400EC2FF0E0EE0F1C
:1006F000FF1FEA57FF4FA591B4918FB7F8941111DE
:1007000005C09C91ED2FE095E92302C0EC91ED2B03
:10071000EC938FBFDF91CF911F910895CF93DF931B
:1007200090E0FC01E255FF4F2491FC01E656FF4F9B
:100730008491882361F190E0880F991FFC01E859AA
:10074000FF4FC591D491FC01EA57FF4FA591B49199
:10075000611109C09FB7F89488812095822388830E
:10076000EC912E230BC0623061F49FB7F89438816E
:10077000822F809583238883EC912E2B2C939FBF0F
:1007800006C08FB7F894E8812E2B28838FBFDF91A6
:10079000CF9108958F929F92AF92BF92CF92DF92A6
:1007A000EF92FF926B017C010E9426014B015C01DC
:1007B000C114D104E104F104F1F00E942601DC012E
:1007C000CB0188199909AA09BB09883E9340A10564
:1007D000B10570F321E0C21AD108E108F10888EEF2
:1007E000880E83E0981EA11CB11CC114D104E10441
:1007F000F10419F7DDCFFF90EF90DF90CF90BF901D
:10080000AF909F908F9008952FB7F8946091270331
:10081000709128038091290390912A032FBF089596
:100820001F920F920FB60F9211242F933F938F9325
:100830009F93AF93BF938091270390912803A0913A
:100840002903B0912A033091260323E0230F2D378B
:1008500020F40196A11DB11D05C026E8230F0296C4
:10086000A11DB11D20932603809327039093280395
:10087000A0932903B0932A0380912B0390912C031A
:10088000A0912D03B0912E030196A11DB11D80935F
:100890002B0390932C03A0932D03B0932E03BF91B1
:1008A000AF919F918F913F912F910F900FBE0F901D
:1008B0001F9018951F920F920FB60F9211242F932D
:1008C0003F934F935F936F937F938F939F93AF93D8
:1008D000BF93EF93FF93E0910201F091030109951B
:1008E000FF91EF91BF91AF919F918F917F916F9108
:1008F0005F914F913F912F910F900FBE0F901F90DE
:1009000018951F920F920FB60F9211242F933F93B9
:100910004F935F936F937F938F939F93AF93BF9307
:10092000EF93FF93E0910001F09101010995FF9190
:10093000EF91BF91AF919F918F917F916F915F9157
:100940004F913F912F910F900FBE0F901F901895D0
:10095000FF920F931F93CF93DF93EC01F12C0F2D98
:1009600010E08E8182958F7090E0081719079CF433
:10097000EC81FD81E00FF11F61E080810E948E0318
:100980008C819D81FC01E00FF11F60E080810E945D
:100990005E03F394E4CFF12C0F2D10E08E818F7065
:1009A00090E0081719079CF4EA81FB81E00FF11F22
:1009B00060E080810E948E038A819B81FC01E00FB0
:1009C000F11F61E080810E945E03F394E5CFDF9127
:1009D000CF911F910F91FF9008951F920F920FB624
:1009E0000F9211242F933F934F935F936F937F93B5
:1009F0008F939F93AF93BF93EF93FF93E09138034F
:100A0000F0913903309709F451C0968DA685B785CA
:100A1000858591FF04C09C91892329F447C09C914E
:100A2000892309F043C0A389B4899C918589809565
:100A300089238C93868997890197F1F7608D718D51
:100A4000A685B785558538E020E0CB010197F1F701
:100A5000822F90E095958795282F4C91452309F09A
:100A60002068315091F7868D81FD20958091370364
:100A700090E001968F73992730913603381749F02B
:100A8000A0913703B0E0AA51BD4F2C938093370358
:100A900003C0868D8160868F828D938D0197F1F7DB
:100AA000A389B4899C918589892B8C93FF91EF91BF
:100AB000BF91AF919F918F917F916F915F914F9176
:100AC0003F912F910F900FBE0F901F901895E091BE
:100AD0003803F0913903E817F90769F4A389B48959
:100AE0009C918589809589238C931092390310926B
:100AF000380381E0089580E008951F920F920FB6A9
:100B00000F9211242F933F934F935F936F937F9393
:100B10008F939F93AF93BF93EF93FF938091B9000F
:100B2000887F803609F49CC068F5883209F45BC080
:100B300090F4803109F454C038F4882309F4F6C0E5
:100B4000883009F44DC0F6C0883109F44CC08032B9
:100B500009F45DC0EFC0803409F468C048F4803304
:100B600009F455C0883309F0E5C08093C202D8C0AB
:100B7000803509F44FC0883509F45DC0883409F028
:100B8000D9C0D6C0883909F4C7C0A8F4883709F499
:100B900067C038F4883609F463C0803709F460C050
:100BA000C9C0883809F4B8C0803909F45FC08038FA
:100BB00009F0C0C05BC0803B09F486C038F4803ABD
:100BC00009F466C0883A09F47FC0B4C0803C09F4D7
:100BD000A7C0883C09F4A4C0883B09F48AC0AAC015
:100BE0008091E50210C09091E4028091E302981791
:100BF00070F5E091E40281E08E0F8093E402F0E072
:100C0000ED53FD4F80818093BB0085EC86C08093BF
:100C1000C2028EC0E091E40281E08E0F8093E40274
:100C20008091BB00F0E0ED53FD4F80839091E40292
:100C30008091E3026EC0E091E40281E08E0F809328
:100C4000E4028091BB00F0E0ED53FD4F8083809182
:100C5000300381116DC081E080932F0384EA61C06D
:100C600083E0809331031092C102CFCF8091C10203
:100C7000803208F051C0E091C10281E08E0F809374
:100C8000C1028091BB00F0E0EF55FD4F8083BDCFE6
:100C900085EC8093BC00109231038091C1028032B8
:100CA00030F4E091C102F0E0EF55FD4F1082609109
:100CB000C10270E0E0919F02F091A00281EA92E00F
:100CC00009951092C10236C084E0809331031092DE
:100CD0009E0210929D02E0919B02F0919C02099568
:100CE00080919D02811105C081E080939D02109248
:100CF0007B02E0919E0281E08E0F80939E02F0E0E5
:100D0000E558FD4F80818093BB0090919E028091B9
:100D10009D02981708F479CF85E88093BC000AC03B
:100D200085EC8093BC001092310304C01092C20283
:100D30000E940502FF91EF91BF91AF919F918F911A
:100D40007F916F915F914F913F912F910F900FBEC7
:100D50000F901F901895CF93FC01C48121E0209340
:100D60007A02C093590210923303109232038485A1
:100D7000682B88ED93E00E948D02809132038132CE
:100D800008F046C0909131039111FCCF92E090930E
:100D9000310391E0909330039FEF9093C202109241
:100DA000E4028093E302AAE5B2E023EC32E0F90129
:100DB0009E2F921B981718F49D919193F9CF109242
:100DC000E5028091E502CC0FC82BC093E50280912B
:100DD0002F03813061F410922F038091E5028093FC
:100DE000BB008091BC0083FDF8CF85EC01C085EE8F
:100DF0008093BC00809131038230E1F38091C20284
:100E00008F3F31F08091C202803211F08091C20296
:100E1000109233031092320310927A02CF91089508
:100E20000F931F93CF938C01C62F0E94AB066C2F9C
:100E30006460C8010E94AB066C2F6B7FC8010E94E2
:100E4000AB0683EC90E00197F1F7CF911F910F91E2
:100E50000895FF920F931F93CF93DF931F92CDB707
:100E6000DEB78C01F62E962F907F692F642BC80178
:100E700049830E94100780E1F89EB0011124498146
:100E8000642BC8010F90DF91CF911F910F91FF90BC
:100E90000C94100741E00E94290781E090E008953A
:100EA0000F931F93CF93DF938C01EB0160E080E001
:100EB0000E949E0BC8010E94950B61E080E00E9499
:100EC0009E0BCE01DF91CF911F910F910C94950B4A
:100ED0008F929F92BF92CF92DF92EF92FF920F93E9
:100EE0001F93CF93DF93CDB7DEB728970FB6F89453
:100EF000DEBF0FBECDBF109201040E94040400911A
:100F00005002109151022091520230915302DC01A3
:100F1000CB01801B910BA20BB30B0B97A105B10565
:100F200008F43DC10E940404609350027093510282
:100F300080935202909353028EEE93E00E94A80495
:100F4000E12CF12CBB24B3948091F403982F9F7073
:100F500082958F70989FC0011124E816F9060CF055
:100F600071C000914B02C02ED12CE091F203F091A0
:100F7000F303EC0DFD1D60E080810E945E03109183
:100F80004A02812E912CE091F003F091F103E80DDB
:100F9000F91D80810E94FD00209148023091490294
:100FA000280F311D3093490220934802811106C059
:100FB00080914B028093FE031093FF038091F40312
:100FC000482F4F70642F70E06150710986169706A4
:100FD000A1F482958F70682F70E061507109C61678
:100FE000D70659F4489FC00111242817390719F46E
:100FF000B092000402C0109200041F5F10934A02D6
:1010000014131CC010924A028091F2039091F303D2
:10101000FC01EC0DFD1D61E080810E945E030F5F0D
:1010200000934B028091F40382958F70081306C0E1
:1010300010924B0210924902109248028FEFE81A68
:10104000F80A82CF8091F5039091F60381309105E3
:1010500099F11CF4892B79F0A2C08230910509F432
:1010600057C0039709F09BC060E070E08EEE93E0FC
:101070000E944C0194C080910004811190C00E9494
:10108000040400914C0210914D0220914E023091C7
:101090004F02AB01BC01401B510B620B730B8091E3
:1010A000F8039091F903A0E0B0E084179507A60734
:1010B000B70708F44FC073C00E940404C0904C02EC
:1010C000D0904D02E0904E02F0904F02AB01BC0177
:1010D0004C195D096E097F098091FA039091FB0319
:1010E000A0E0B0E084179507A607B70718F462E000
:1010F00070E047C080910004882309F450C00E942A
:101100000404AB01BC014C195D096E097F0915C0CF
:1011100080910004882309F442C00E9404040091D5
:101120004C0210914D0220914E0230914F02AB01C2
:10113000BC01401B510B620B730B8091F803909123
:10114000F903A0E0B0E084179507A607B70708F4F5
:1011500075C025C09091FF038091F40382958F7034
:101160002091FE03E091EE03F091EF03E20FF11DF9
:10117000989FE00DF11D112480818093F70361E0B9
:1011800070E08EEE93E00E944C010E940404609394
:101190004C0270934D0280934E0290934F028091C7
:1011A000F5039091F603019729F4809101048111D0
:1011B00048C001C080E080933A03833209F444C000
:1011C0008A3209F441C01A8219821C821B821E8253
:1011D0001D828F831886BE01695F7F4FCE01019605
:1011E0000E94ED0A8D819E81E980FA800091EC03D6
:1011F0001091ED03E114F104E1F00097D1F0080F34
:10120000191FB80188EE93E00E946B0A882389F0C9
:101210002091E8033091E9038091EC039091ED0374
:10122000B701820F931F0E9411141093ED030093D6
:10123000EC03CE0101960E940E0B06C063E070E045
:10124000A0CF8091F703B7CF28960FB6F894DEBFF2
:101250000FBECDBFDF91CF911F910F91FF90EF9007
:10126000DF90CF90BF909F908F900895CF93DF93A2
:10127000CDB7DEB72C970FB6F894DEBF0FBECDBF4B
:1012800066E472E088EE93E00E94ED0A60E086E09A
:101290000E945E030E94CE0B67E671E0CE010796C6
:1012A0000E94130B6DE671E0CE0101960E94130BB4
:1012B000BE01695F7F4FCE0101960E945007CE01AB
:1012C00001960E940E0BCE0107960E940E0B81E044
:1012D000809358020E94680761E087E00E949E0B9D
:1012E00088EE93E00E94950B80913A038A3239F59B
:1012F00060E086E00E945E030E94CE0B67E671E02C
:10130000CE0107960E94130B6DE671E0CE010196A7
:101310000E94130BBE01695F7F4FCE0101960E94B0
:101320005007CE0101960E940E0BCE0107960E9437
:101330000E0B66E472E088EE93E00E94ED0A83E013
:101340000E94FD00892B59F56CE370E080E090E08D
:101350000E94CA036EE771E0CE0107960E94130B4C
:1013600060E971E0CE0101960E94130BBE01695F36
:101370007F4FCE0101960E945007CE0101960E9438
:101380000E0BCE0107960E940E0B68EE73E080E014
:1013900090E00E94CA030E94CE0B109258028091E6
:1013A0003A03833209F053C08091E8039091E90336
:1013B000009761F00E940911161617061806190603
:1013C0002CF461E086E00E945E0331C00E94CE0BE7
:1013D00066E472E088EE93E00E94ED0A60E086E049
:1013E0000E945E0363EA71E0CE0107960E94130B30
:1013F00064EB71E0CE0101960E94130BBE01695FA0
:101400007F4FCE0101960E945007CE0101960E94A7
:101410000E0BCE0107960E940E0B68EE73E080E083
:1014200090E00E94CA030E94CE0B0E943609809170
:10143000E8039091E903009731F00E940911672BAE
:10144000682B692B21F460E086E00E945E038091A6
:10145000580281113FCF2C960FB6F894DEBF0FBE15
:10146000CDBFDF91CF910895CF92DF92EF92FF929F
:101470000F931F93CF93DF936C017A018B01C0E030
:10148000D0E0CE15DF0589F0D8016D918D01D60130
:10149000ED91FC910190F081E02DC6010995892B19
:1014A00011F47E0102C02196ECCFC701DF91CF91EC
:1014B0001F910F91FF90EF90DF90CF9008950E94C1
:1014C000F8138BE393E00E94BE0021E0892B09F41E
:1014D00020E0822F08950F931F93CF93DF93EC01A9
:1014E00088819981009729F02A813B812617370747
:1014F00088F48B016F5F7F4F0E942E13009761F07D
:10150000998388831B830A832C813D81232B11F4CB
:10151000FC01108281E001C080E0DF91CF911F913A
:101520000F910895EF92FF920F931F93CF93DF9344
:1015300000D0CDB7DEB78C0169831A82FC01E4804C
:10154000F580FFEFEF1AFF0AB7010E946B0A8823AC
:1015500081F0F8012081318184819581BE016F5F26
:101560007F4F820F931F0E941114F801F582E482CD
:1015700081E00F900F90DF91CF911F910F91FF901D
:10158000EF900895EF92FF920F931F93CF93DF9305
:10159000EC017B018A01BA010E946B0A2881398122
:1015A00081110DC02115310519F0C9010E94961253
:1015B000198218821D821C821B821A8206C01D831A
:1015C0000C83B701C9010E941114CE01DF91CF91A4
:1015D0001F910F91FF90EF900895CF93DF93EC014F
:1015E0006115710559F0FB0101900020E9F7319771
:1015F000AF01461B570B0E94C20A0CC0888199811B
:10160000009711F00E949612198218821D821C8286
:101610001B821A82CE01DF91CF910895FC01808157
:1016200091810C949612FC01118210821382128215
:10163000158214826115710551F0FB0101900020A3
:10164000E9F73197AF01461B570B0C94C20A089576
:101650006115710579F0FB0101900020E9F73197E0
:10166000AF01461B570BDC01ED91FC910280F38129
:10167000E02D099480E090E008951F920F920FB63C
:101680000F9211242F933F934F935F936F937F9308
:101690008F939F93AF93BF93EF93FF938BE393E06D
:1016A0000E94D402FF91EF91BF91AF919F918F91D2
:1016B0007F916F915F914F913F912F910F900FBE4E
:1016C0000F901F9018951F920F920FB60F92112432
:1016D0002F938F939F93EF93FF93E0914B03F091A0
:1016E0004C038081E0915103F091520382FD12C0BE
:1016F0009081809154038F5F8F73209155038217DF
:1017000051F0E0915403F0E0E55CFC4F958F80933D
:10171000540301C08081FF91EF919F918F912F9190
:101720000F900FBE0F901F901895FC0144815581BA
:101730006081718181E294E00C94340ACF93DF934D
:10174000CDB7DEB728970FB6F894DEBF0FBECDBF7A
:1017500028E0EDE1F1E0DE01119601900D922A956D
:10176000E1F720912904261710F46FEF620FFE01B4
:101770003196E60FF11DE60FF11D9081682F690F7C
:10178000606840E081E294E028960FB6F894DEBFEE
:101790000FBECDBFDF91CF910C94290740E061E0EF
:1017A00081E294E00E9429078BE39FE10197F1F722
:1017B00080912A04882321F060E080E00C949E0B45
:1017C00008950F931F930E94040460930A0470937A
:1017D0000B0480930C0490930D04E0910204F091AB
:1017E00003040284F385E02D82E094E0099597FFDD
:1017F0001FC00E94040400910A0410910B04209160
:101800000C0430910D04DC01CB01801B910BA20B69
:10181000B30B009106041091070420910804309145
:10182000090480179107A207B307B8F28FEF9FEF63
:101830001F910F910895CF93DF93BC0182E094E054
:101840000E94280BEC0164E472E082E094E00E94C4
:10185000280B8C0F9D1FDF91CF91089588EE93E0A8
:101860000E940E0B8DE491E0909303048093020498
:1018700082E094E00C946705CF93DF93CDB7DEB799
:10188000E1970FB6F894DEBF0FBECDBF789484B554
:10189000826084BD84B5816084BD85B5826085BD6C
:1018A00085B5816085BD80916E00816080936E00FA
:1018B00010928100809181008260809381008091EC
:1018C000810081608093810080918000816080939D
:1018D00080008091B10084608093B1008091B0005D
:1018E00081608093B00080917A00846080937A0058
:1018F00080917A00826080937A0080917A00816082
:1019000080937A0080917A00806880937A001092A8
:10191000C1001092350310923403109233031092D9
:1019200032031092310381E08093300310922F0331
:1019300061E082E10E945E0361E083E10E945E0358
:101940008091B9008E7F8093B9008091B9008D7F1E
:101950008093B90088E48093B80085E48093BC004C
:101960001092260480912C04823018F098E0909315
:1019700026048093290462E370E080E090E00E94F6
:10198000CA0360912D0481E294E00E94AB0668EEE8
:1019900073E080E090E00E94CA0360E381E294E09B
:1019A0000E9410070BE416E4C8010197F1F760E309
:1019B00081E294E00E941007C8010197F1F760E30B
:1019C00081E294E00E94100783E592E00197F1F72D
:1019D00060E281E294E00E94100760912604606258
:1019E00040E081E294E00E94290784E0809327048C
:1019F00040E06CE081E294E00E9429070E94CE0B57
:101A000082E08093280440E066E081E294E00E9456
:101A1000290740E062E081E294E00E9429078BE31D
:101A20009FE10197F1F788E080932D0460E081E267
:101A300094E00E94AB0610921D0410921C041092B8
:101A40001B0410921A0410921904109218048DE9C4
:101A500091E090931F0480931E0490910E049631A0
:101A600008F057C02DEB30E0309319042093180490
:101A70002BE931E030931B0420931A042CE231E06F
:101A800030931D0420931C0420916800983050F07E
:101A900031E09E3008F430E081E001C0880F3A95D3
:101AA000EAF701C084E0822B80936800983038F018
:101AB0009E3040F0963148F020E030E008C02DE63E
:101AC00030E005C02BE630E002C02CE630E0309379
:101AD000160420931504983030F481E001C0880F7B
:101AE0009A95EAF70EC0292F30E09E3018F428505E
:101AF000310902C02E50310981E001C0880F2A95BA
:101B0000EAF78093170480911E0490911F040197B7
:101B1000F1F780911C0490911D04892B21F1809193
:101B200038039091390324E082309207E1F0009766
:101B300011F00E946705809120048E7F809320041D
:101B4000109237031092360382E094E090933903A9
:101B500080933803E0911504F091160490818091F0
:101B60001704892B8083E0914B03F0914C0382E0B2
:101B70008083E0914703F09148031082E09149038C
:101B8000F0914A038FEC808310925303E0914F034E
:101B9000F091500386E08083E0914D03F0914E0375
:101BA000808180618083E0914D03F0914E038081BC
:101BB00088608083E0914D03F0914E0380818068BE
:101BC0008083E0914D03F0914E0380818F7D80836F
:101BD00062E083E00E948E0361E086E00E948E0353
:101BE00060E082E00E948E0361E085E00E948E0347
:101BF00061E084E00E948E0362E089E00E948E032F
:101C000060E086E00E945E0380EC92E09093010128
:101C10008093000180916900836080936900E89A55
:101C200064EC71E0CE0101960E94130B66ED71E049
:101C3000CE0182960E94130BBE016F5F7F4FCE01D3
:101C400082960E945007CE0182960E940E0BCE0112
:101C500001960E940E0B60ED77E080E090E00E941C
:101C6000CA030E94CE0B67EE71E0CE0101960E947E
:101C7000130B66E472E0CE0182960E94130BBE0144
:101C80006F5F7F4FCE0182960E945007CE018296F1
:101C90000E940E0BCE0101960E940E0B60ED77E0C4
:101CA00080E090E00E94CA030E94CE0B68EF71E0D2
:101CB00081E294E00E94280B61E080E00E949E0B8C
:101CC00061E072E081E294E00E94280B89E092E0FA
:101CD0000E941B0C64E670E080E090E00E94CA0362
:101CE00082E094E00E94CC01892B51F082E094E0E4
:101CF0000E94E401682F8BE393E00E94F502F0CF8D
:101D00008CE092E00E941B0C68EE73E080E090E0B3
:101D10000E94CA0366E472E0CE0188960E94130B0B
:101D200082E094E00E94CC01892B51F082E094E0A3
:101D30000E94E401682FCE0188960E94920AF0CF9B
:101D400063E172E0CE0101960E94130B8CA59DA564
:101D5000892B71F008A519A569817A81C8010E94B3
:101D60001814009729F0FC01E01BF10B8F0102C051
:101D70000FEF1FEFCE0101960E940E0B0F3FFFEFFA
:101D80001F0709F4C2C0780126E0E20EF11C8CA501
:101D90009DA5E816F90608F0B8C0C8A4D9A46CE25D
:101DA00070E0C6018E0D9F1D0E940614009709F475
:101DB000ACC08C010C191D090F3F3FEF130709F44C
:101DC000A4C00E151F0528F49E2D8F2D7801092F14
:101DD000182F66E472E0CE0182960E94130B8CA548
:101DE0009DA5E816F906C0F48017910708F48C0148
:101DF000E8A5F9A5E00FF11FD080108268A579A5AC
:101E00006E0D7F1DCE0182960E94ED0A88A599A5D0
:101E1000FC01E00FF11FD0828AA19BA1009719F06D
:101E20000E94091103C060E070E0CB01DB0124E6F1
:101E300030E00E94E0112FE130E040E050E00E94ED
:101E4000451161E088E02EA73FA748AB59AB0E943F
:101E50009E0B2EA53FA56901330FEE08FF08F7FE84
:101E60002BC0E0912104F09122040190F081E02D3B
:101E70006DE281E294E0099522273327A9012C190C
:101E80003D094E095F0919A28E010F5D1F4F9AE0AF
:101E9000C92ED12CE12CF12CCA01B901A701960160
:101EA0000E949B11605DF80162938F01211531053D
:101EB0004105510589F71AC0A701960119A28E01A3
:101EC0000F5D1F4F8AE0C82ED12CE12CF12CCA01E6
:101ED000B901A70196010E949B11605DF801629310
:101EE0008F01211531054105510589F7B80181E2BE
:101EF00094E00E94280B69E172E081E294E00E9484
:101F0000280BCE0182960E940E0B8EE192E00E9479
:101F10001B0C68EE73E080E090E00E94CA0382E050
:101F200094E00E94CC01892B61F182E094E00E9450
:101F3000E4018232A1F766E472E0CE0101960E94CC
:101F4000130B0E94E10B97FD09C08232910531F01D
:101F5000682FCE0101960E94920AF3CF60E080E0E4
:101F60000E949E0BCE0101960E94950B6FE971E0D5
:101F700081E294E00E94280BCE0101960E940E0B94
:101F8000CECFCE0188960E940E0B67E272E0CE01A2
:101F900001960E94130B68E372E0CE0182960E94C4
:101FA000130BBE016F5F7F4FCE0182960E945007D8
:101FB000CE0182960E940E0BCE0101960E940E0B5E
:101FC00061E086E00E945E030E94680780913A0308
:101FD000813311F40E9436090E94CA00D6CF1092B4
:101FE0003E0310923D0388EE93E0A0E0B0E08093C2
:101FF0003F0390934003A0934103B093420329E22F
:1020000031E030933C0320933B0325EC30E03093E8
:1020100048032093470324EC30E030934A03209395
:10202000490320EC30E030934C0320934B0321EC28
:1020300030E030934E0320934D0322EC30E0309398
:10204000500320934F0326EC30E03093520320934B
:10205000510310925403109255031092560310929C
:1020600057031092DB031092DA038093DC03909302
:10207000DD03A093DE03B093DF032BE331E0309365
:10208000D9032093D80310922404109223042FE53F
:1020900031E0309322042093210410922A0427E295
:1020A0002093250420E120932B0422E020932C048C
:1020B00010922D04109205041092040480930604DB
:1020C00090930704A0930804B09309048DE491E071
:1020D0009093030480930204109219041092180440
:1020E00010921B0410921A0410921D0410921C04EA
:1020F00010921F0410921E04609120046E7F6D7F69
:10210000609320046695617081E0682788E00E94F2
:102110005E0361E088E00E948E03E6EBF0E0E4916C
:10212000E0931204E2EAF0E0E491F0E0EE0FFF1F2A
:10213000EA57FF4F85919491909314048093130470
:1021400060E087E00E948E038091200481FD04C03E
:1021500061E087E00E945E0387E080930E04E5EB78
:10216000F0E0E491E0930F04E1EAF0E0E491F0E0C4
:10217000EE0FFF1FE057FF4F85919491909311044C
:102180008093100487E091E09093F1038093F00333
:1021900084E091E09093F3038093F20384E38093CF
:1021A000F4031092FE031092FF038BE091E09093F2
:1021B000EF038093EE0381E08093000482E090E0DF
:1021C0009093F9038093F80384EF91E09093FB03DD
:1021D0008093FA031092FD031092FC031092F60311
:1021E0001092F503109201048EEE93E00E94A80471
:1021F00066E472E088EE93E00E94130B0E940404F0
:102200006093E4037093E5038093E6039093E70300
:1022100008951F93FC0199278827BC01E894119128
:102220001032E9F3193010F01E30C8F31B3251F0B0
:102230001D3249F4689406C00E943011610F711D6F
:10224000811D911D119110531A30B0F33EF49095F9
:102250008095709561957F4F8F4F9F4F1F91089587
:10226000592F482F372F262F660F771F881F991F4A
:10227000660F771F881F991F620F731F841F951F9A
:10228000660F771F881F991F0895052E97FB1EF470
:1022900000940E945C1157FD07D00E949B1107FC1F
:1022A00003D04EF40C945C115095409530952195D7
:1022B0003F4F4F4F5F4F0895909580957095619572
:1022C0007F4F8F4F9F4F08952F923F924F925F9273
:1022D0006F927F928F929F92AF92BF92CF92DF9236
:1022E000EF92FF920F931F93CF93DF93CDB7DEB79B
:1022F000CA1BDB0B0FB6F894DEBF0FBECDBF09942F
:102300002A88398848885F846E847D848C849B8485
:10231000AA84B984C884DF80EE80FD800C811B8193
:10232000AA81B981CE0FD11D0FB6F894DEBF0FBEC2
:10233000CDBFED010895A1E21A2EAA1BBB1BFD0122
:102340000DC0AA1FBB1FEE1FFF1FA217B307E40794
:10235000F50720F0A21BB30BE40BF50B661F771FEC
:10236000881F991F1A9469F76095709580959095CC
:102370009B01AC01BD01CF010895A29FB001B39FA5
:10238000C001A39F700D811D1124911DB29F700D7E
:10239000811D1124911D089597FB072E16F40094BA
:1023A00007D077FD09D00E94E71107FC05D03EF465
:1023B000909581959F4F0895709561957F4F0895F1
:1023C0000E94BD11B7FF0895821B930B0895AA1BAD
:1023D000BB1B51E107C0AA1FBB1FA617B70710F010
:1023E000A61BB70B881F991F5A95A9F78095909542
:1023F000BC01CD010895EE0FFF1F0590F491E02D73
:102400000994CF93DF938230910510F482E090E03D
:10241000E0913004F091310420E030E0C0E0D0E001
:10242000309711F14081518148175907C0F0481782
:10243000590761F482819381209719F09B838A83E5
:102440002BC0909331048093300426C021153105B0
:1024500019F04217530718F49A01BE01DF01EF018A
:102460000280F381E02DDCCF2115310509F1281B15
:10247000390B2430310590F412968D919C9113976D
:102480006115710521F0FB019383828304C0909351
:10249000310480933004FD01329644C0FD01E20F07
:1024A000F31F81939193225031092D933C933AC0AD
:1024B00020912E0430912F04232B41F420911901F7
:1024C00030911A0130932F0420932E04209117018C
:1024D000309118012115310541F42DB73EB74091D7
:1024E0001B0150911C01241B350BE0912E04F0912F
:1024F0002F04E217F307A0F42E1B3F0B2817390710
:1025000078F0AC014E5F5F4F2417350748F04E0F4F
:102510005F1F50932F0440932E048193919302C028
:10252000E0E0F0E0CF01DF91CF9108950F931F938A
:10253000CF93DF93009709F48CC0FC01329713828C
:10254000128200913004109131040115110581F4BB
:1025500020813181820F931F20912E0430912F040E
:102560002817390779F5F0932F04E0932E0471C0F2
:10257000D80140E050E0AE17BF0750F412962D91FD
:102580003C911397AD012115310509F1D901F3CF24
:102590009D01DA013383228360817181860F971F49
:1025A0008217930769F4EC0128813981260F371FC0
:1025B0002E5F3F4F318320838A819B819383828367
:1025C000452B29F4F0933104E093300442C0139674
:1025D000FC93EE931297ED01499159919E01240FBE
:1025E000351FE217F30771F480819181840F951FE5
:1025F000029611969C938E938281938113969C935D
:102600008E931297E0E0F0E0D80112968D919C91A4
:102610001397009719F0F8018C01F6CF8D919C91DA
:1026200098012E5F3F4F820F931F20912E0430910F
:102630002F042817390769F4309729F410923104D0
:102640001092300402C01382128210932F04009360
:102650002E04DF91CF911F910F910895A0E0B0E07B
:10266000E4E3F3E10C946811EC01009721F4CB0151
:102670000E940112B8C0FC01E60FF71F9C01225016
:102680003109E217F30708F4ACC0D9010D911C9190
:10269000119706171707B0F00530110508F49FC011
:1026A000C80104978617970708F499C002501109CA
:1026B000061B170B019311936D937C93CF010E941E
:1026C00096128DC05B01A01AB10A4C01800E911EBA
:1026D000A0913004B091310440E050E0E12CF12CA5
:1026E000109709F44AC0A815B905D1F56D907C90F2
:1026F0001197630182E0C80ED11CCA14DB0480F17B
:10270000A3014A195B096A0182E0C80ED11C129626
:10271000BC9012971396AC91B5E0CB16D10440F063
:10272000B282A38351834083D9016D937C930AC005
:102730000E5F1F4FC301800F911FF90191838083AA
:10274000EB2DFA2FE114F10431F0D7011396FC932D
:10275000EE93129744C0F0933104E09330043FC0ED
:102760008D919C9111974817590708F4AC017D0190
:1027700012960D90BC91A02DB3CF80912E04909114
:102780002F0488159905E1F446175707C8F480917E
:10279000170190911801009741F48DB79EB74091B1
:1027A0001B0150911C01841B950BE817F907C8F415
:1027B000F0932F04E0932E04F901718360830FC01E
:1027C000CB010E9401127C01009759F0A801BE01C3
:1027D0000E94FD13CE010E949612C70104C0CE01D3
:1027E00002C080E090E0CDB7DEB7EEE00C9484113B
:1027F00081E090E0F8940C943214FB01DC0102C0FB
:1028000001900D9241505040D8F70895FC018191FC
:10281000861721F08823D9F7992708953197CF019A
:102820000895FB01DC0101900D920020E1F708956D
:10283000FB0151915523A9F0BF01DC014D914517D2
:102840004111E1F759F4CD010190002049F04D917B
:1028500040154111C9F3FB014111EFCF81E090E038
:102860000197089510E0C2E6D0E004C0FE010E9486
:0E287000FB112196C336D107C9F7F894FFCFAC
:10287E004B014B010E0F10110D0C0B313233343551
:10288E00363738392A3023000032048000000040E9
:10289E00001400540000000000F502340A8D003CC4
:1028AE0003BE009C00B000000000008D025D02BD62
:1028BE000237025502460238020000000078013449
:1028CE000ABD027701CC01E4015F01000000004A5D
:1028DE0007340ABD02BC024C6974613A002D496E80
:1028EE0067697A612020204B696173692D00202071
:1028FE0020556D65736974697368776120202000B7
:10290E00202020204D70616E67696C696F20202039
:10291E00202000202A2D2D53692073616869686973
:10292E002D2D2A0020202020204B6977616E676FA5
:10293E0020202000506C6163653A4461722D6573EE
:10294E002073616C6D002A2D4941545420436F6DE4
:10295E0070616E792D2A00496E6170616B69612E0E
:10296E002E2E2E2E2E2E2E004D74616E64616F3A19
:10297E00004E677576753A200041540041542B4342
:10298E005351002B4353513A00252020200041542F
:10299E002B435245473F00322E43686167756120D5
:1029AE00206368616E6A6F00312E50696D61204D33
:0829BE00616A69000D0A0000C6
:107800000C94343C0C94513C0C94513C0C94513CE1
:107810000C94513C0C94513C0C94513C0C94513CB4
:107820000C94513C0C94513C0C94513C0C94513CA4
:107830000C94513C0C94513C0C94513C0C94513C94
:107840000C94513C0C94513C0C94513C0C94513C84
:107850000C94513C0C94513C0C94513C0C94513C74
:107860000C94513C0C94513C11241FBECFEFD8E036
:10787000DEBFCDBF11E0A0E0B1E0ECE9FFE702C060
:1078800005900D92A230B107D9F712E0A2E0B1E065
:1078900001C01D92AD30B107E1F70E942D3D0C945F
:1078A000CC3F0C94003C982F959595959595959582
:1078B000905D8F708A307CF0282F295A8091C0000B
:1078C00085FFFCCF9093C6008091C00085FFFCCF60
:1078D0002093C6000895282F205DF0CF982F809127
:1078E000C00085FFFCCF9093C6000895EF92FF92F1
:1078F0000F931F93EE24FF2487018091C00087FD22
:1079000017C00894E11CF11C011D111D81E4E8164B
:1079100082E4F8068FE0080780E0180770F3E09132
:107920000401F091050109958091C00087FFE9CF1E
:107930008091C6001F910F91FF90EF9008950E94D3
:10794000763C982F8091C00085FFFCCF9093C600B5
:1079500091362CF490330CF09053892F089597555D
:10796000892F08951F930E949F3C182F0E949F3CCF
:107970001295107F810F1F9108951F93182F882350
:1079800021F00E94763C1150E1F71F9108951F935A
:10799000182F0E94763C803249F0809103018F5F5E
:1079A000809303018530C1F01F9108958091C0003C
:1079B00085FFFCCF84E18093C6008091C00085FFE5
:1079C000FCCF1093C6008091C00085FFFCCF80E102
:1079D0008093C6001F910895E0910401F091050184
:1079E00009951F9108950E94763C803241F0809164
:1079F00003018F5F80930301853081F008958091AA
:107A0000C00085FFFCCF84E18093C6008091C00058
:107A100085FFFCCF80E18093C6000895E0910401CA
:107A2000F09105010995089540E951E08823A1F0FE
:107A30002D9A28EE33E0FA013197F1F721503040CA
:107A4000D1F72D9828EE33E0FA013197F1F7215064
:107A50003040D1F7815061F708953F924F925F9285
:107A60006F927F928F929F92AF92BF92CF92DF924E
:107A7000EF92FF920F931F93CF93DF93000080E16B
:107A80008093C4001092C50088E18093C10086E015
:107A90008093C2005098589A259A81E00E94143D24
:107AA00024E1F22E9EE1E92E85E9D82E0FE0C02ECA
:107AB00010E1B12EAA24A394B1E49B2EA6E58A2E50
:107AC000F2E57F2EE0E26E2E79E4572E63E5462E36
:107AD00050E5352E0E94763C8033B1F18133B9F107
:107AE000803409F46FC0813409F476C0823409F41B
:107AF00085C0853409F488C0803531F1823521F1A3
:107B0000813511F1853509F485C0863509F48DC0BC
:107B1000843609F496C0843709F403C1853709F423
:107B200072C1863709F466C0809103018F5F80932C
:107B30000301853079F6E0910401F0910501099582
:107B40000E94763C803351F60E94F33CC3CF0E94E2
:107B5000763C803249F78091C00085FFFCCFF092DF
:107B6000C6008091C00085FFFCCF9092C600809136
:107B7000C00085FFFCCF8092C6008091C00085FFC9
:107B8000FCCF7092C6008091C00085FFFCCF609250
:107B9000C6008091C00085FFFCCF5092C600809146
:107BA000C00085FFFCCF4092C6008091C00085FFD9
:107BB000FCCF3092C6008091C00085FFFCCFB09210
:107BC000C60088CF0E94763C863808F4BDCF0E945C
:107BD000763C0E94F33C7ECF0E94763C803809F4CC
:107BE0009CC0813809F40BC1823809F43CC1883942
:107BF00009F48FC080E00E94C73C6CCF84E10E94F2
:107C0000BD3C0E94F33C66CF85E00E94BD3C0E94D3
:107C1000F33C60CF0E94763C809306010E94763C44
:107C2000809307010E94F33C55CF0E94763C80333D
:107C300009F41DC183E00E94BD3C80E00E94C73C66
:107C400049CF0E94763C809309020E94763C809343
:107C5000080280910C028E7F80930C020E94763C79
:107C6000853409F415C18091080290910902892B8D
:107C700089F000E010E00E94763CF801E85FFE4FDA
:107C800080830F5F1F4F80910802909109020817AF
:107C9000190788F30E94763C803209F045CF809125
:107CA0000C0280FF01C16091060170910701660F0F
:107CB000771F7093070160930601A0910802B091AD
:107CC00009021097C9F0E8E0F1E09B01AD014E0F09
:107CD0005F1FF999FECF32BD21BD819180BDFA9A17
:107CE000F99A2F5F3F4FE417F50799F76A0F7B1F4B
:107CF00070930701609306018091C00085FFFCCF5F
:107D0000F092C6008091C00085FFFCCFB092C60003
:107D1000E1CE83E00E94C73CDDCE82E00E94C73CFA
:107D2000D9CE0E94763C809309020E94763C8093D3
:107D300008028091060190910701880F991F909386
:107D40000701809306010E94763C853409F4A6C0A1
:107D500080910C028E7F80930C020E94763C8032D0
:107D600009F0B8CE8091C00085FFFCCFF092C6002C
:107D7000609108027091090261157105B9F140E046
:107D800050E080910C02A82FA170B82FB27011C0E2
:107D9000BB2309F45CC0E0910601F0910701319624
:107DA000F0930701E09306014F5F5F4F46175707B7
:107DB000E8F4AA2369F3F999FECF209106013091E6
:107DC000070132BD21BDF89A90B58091C00085FFB2
:107DD000FCCF9093C6002F5F3F4F30930701209355
:107DE00006014F5F5F4F4617570718F38091C00099
:107DF00085FDE5CE8091C00085FFF8CFE0CE81E023
:107E00000E94C73C67CE0E94763C803209F08CCE3F
:107E10008091C00085FFFCCFF092C6008091C00029
:107E200085FFFCCFE092C6008091C00085FFFCCFAB
:107E3000D092C6008091C00085FFFCCFC092C600E2
:107E40008091C00085FFFCCFB092C60043CEE09188
:107E50000601F091070194918091C00085FFFCCF4D
:107E60009093C6009CCF80E10E94C73C33CE0E9415
:107E7000763C0E94763C182F0E94763C112309F430
:107E800083C0113009F484C08FE00E94C73C22CE29
:107E900080910C02816080930C02E5CE80910C02EF
:107EA000816080930C0259CF809107018823880F4D
:107EB000880B8A2180930B02809106019091070123
:107EC000880F991F90930701809306018091080203
:107ED00080FF09C080910802909109020196909359
:107EE000090280930802F894F999FECF1127E091D6
:107EF0000601F0910701C8E0D1E08091080290915D
:107F00000902103091F40091570001700130D9F34B
:107F100003E000935700E89500915700017001308D
:107F2000D9F301E100935700E89509901990009169
:107F3000570001700130D9F301E000935700E89534
:107F40001395103498F011270091570001700130FB
:107F5000D9F305E000935700E895009157000170B0
:107F60000130D9F301E100935700E895329602976A
:107F700009F0C7CF103011F00296E5CF112480919F
:107F8000C00085FFB9CEBCCE8EE10E94C73CA2CD19
:0C7F900085E90E94C73C9ECDF894FFCF0D
:027F9C00800063
:040000030000780081
:00000001FF
