:100000000C9463000C948B000C948B000C948B006C
:100010000C948B000C948B000C948B000C948B0034
:100020000C948B000C948B000C948B000C948B0024
:100030000C948B000C948B000C948B000C948B0014
:100040000C94E9030C948B000C94B7030C9491036B
:100050000C948B000C948B000C948B000C948B00F4
:100060000C948B000C948B0000000008000201002F
:100070000003040700000000000000000A0B0C0D44
:100080000E0F0001020304050000000025002800F7
:100090002B0000000000240027002A0004040404B0
:1000A0000404040402020202020203030303030322
:1000B00001020408102040800102040810200102FF
:1000C00004081020330411241FBECFEFD8E0DEBF98
:1000D000CDBF21E0ACE1B1E001C01D92A43EB2076A
:1000E000E1F711E0A0E0B1E0E8EEFDE002C005902C
:1000F0000D92AC31B107D9F710E0C3E6D0E004C0EF
:100100002197FE010E94DE06C236D107C9F70E9480
:1001100083040C94F2060C9400008230910538F0B0
:10012000880F991F880F991F05970197F1F7089578
:1001300090E0FC01E055FF4F2491FC01E456FF4F95
:100140008491882399F090E0880F991FFC01EE5666
:10015000FF4FA591B491FC01E857FF4F8591949111
:100160008FB7F894EC91E22BEC938FBF0895CF9268
:10017000DF92EF92FF920F931F93CF93DF936C0167
:100180007A018B01C0E0D0E0CE15DF0589F0D801FF
:100190006D918D01D601ED91FC910190F081E02DE2
:1001A000C6010995892B11F47E0102C02196ECCF7E
:1001B000C701DF91CF911F910F91FF90EF90DF90DA
:1001C000CF900895089580E090E00895FC01538D4C
:1001D000448D252F30E0842F90E0821B930B541721
:1001E00010F0CF96089501970895FC01918D828DAE
:1001F000981761F0828DDF01A80FB11D5D968C917B
:10020000928D9F5F9F73928F90E008958FEF9FEF85
:100210000895FC01918D828D981731F0828DE80F41
:10022000F11D858D90E008958FEF9FEF0895FC01FB
:10023000918D228D892F90E0805C9F4F821B9109C8
:100240008F739927089588E291E00E94170121E0B9
:10025000892B09F420E0822F0895FC01848DDF01B1
:10026000A80FB11DA35ABF4F2C91848D90E0019629
:100270008F739927848FA689B7892C93A089B18918
:100280008C9180648C93938D848D981306C0028822
:10029000F389E02D80818F7D80830895EF92FF9216
:1002A0000F931F93CF93DF93EC0181E0888F9B8D99
:1002B0008C8D981305C0E889F989808185FD24C05B
:1002C000F62E0B8D10E00F5F1F4F0F731127E02EDE
:1002D0008C8DE8120CC00FB607FCFACFE889F989BB
:1002E000808185FFF5CFCE010E942D01F1CF8B8D4E
:1002F000FE01E80FF11DE35AFF4FF0820B8FEA89F0
:10030000FB898081806207C0EE89FF896083E8896C
:10031000F98980818064808381E090E0DF91CF91D2
:100320001F910F91FF90EF900895CF93DF93EC0111
:10033000888D8823C9F0EA89FB89808185FD05C005
:10034000A889B9898C9186FD0FC00FB607FCF5CF3F
:10035000808185FFF2CFA889B9898C9185FFEDCF87
:10036000CE010E942D01E7CFDF91CF91089580E06B
:1003700090E0892B29F00E94230181110C94000048
:10038000089590E0FC01E859FF4F3491FC01E055DD
:10039000FF4F2491FC01E456FF4FE491EE2309F452
:1003A0003BC0332339F1333091F038F43130A9F0C8
:1003B000323001F584B58F7D12C0373091F038307E
:1003C000A1F03430B9F4809180008F7D03C080911A
:1003D00080008F77809380000DC084B58F7784BDB7
:1003E00009C08091B0008F7703C08091B0008F7DED
:1003F0008093B000F0E0EE0FFF1FE857FF4FA5918C
:10040000B4918FB7F894EC91611103C020952E231D
:1004100001C02E2B2C938FBF0895CF93DF93C6EC92
:10042000D1E061E08B810E94C1018A8D9B8DDF91BB
:10043000CF910C948D003FB7F89480912101909159
:100440002201A0912301B091240126B5A89B05C0EB
:100450002F3F19F00196A11DB11D3FBFBA2FA92F43
:10046000982F8827820F911DA11DB11DBC01CD01C0
:1004700042E0660F771F881F991F4A95D1F70895AC
:100480008F929F92AF92BF92CF92DF92EF92FF92A4
:100490006B017C010E941B024B015C01C114D10461
:1004A000E104F104F1F00E941B02DC01CB01881988
:1004B0009909AA09BB09883E9340A105B10570F3CB
:1004C00021E0C21AD108E108F10888EE880E83E025
:1004D000981EA11CB11CC114D104E104F10419F748
:1004E000DDCFFF90EF90DF90CF90BF90AF909F90C7
:1004F0008F9008958EBD00000DB407FEFDCF8EB520
:1005000008958F929F92AF92BF920F931F93CF93B4
:10051000DF93CDB7DEB7A1970FB6F894DEBF0FBE5D
:10052000CDBF19A2423008F44AE08E010F5D1F4F83
:10053000842E912CA12CB12CA50194010E94BC0603
:10054000E62FB901CA0101501109EA3014F4E05D47
:1005500001C0E95CD801EC93232B242B252B61F7F8
:100560000115110571F0F80101900020E9F73197AC
:10057000AF01401B510BB80188E291E00E94B70027
:1005800002C080E090E0A1960FB6F894DEBF0FBEE7
:10059000CDBFDF91CF911F910F91BF90AF909F90F2
:1005A0008F9008950F931F930091CA011091CB0172
:1005B0002091CC013091CD0190E040E052E16AE71A
:1005C00070E0041715072607370740F476956795FE
:1005D000579547959F5F9630A1F797E081E089276F
:1005E000982F906A969581709CBD8DBD60E080913A
:1005F000C9010E94C1018091E0019091E1011F9128
:100600000F910C948D00CF93DF931F92CDB7DEB77F
:1006100089830E94D202898180620E947A0280933B
:10062000CE010F90DF91CF910C940D02CF93DF9309
:10063000442321F0DF91CF910C940303D62FC82FD0
:100640000E94D2028C2F80620E947A028093CE0197
:100650008D2F0E947A02DF91CF910C940D02609150
:10066000D50161FD0BC062606093D50140E080E080
:100670000E9416038BE19EE40197F1F70895CF9352
:10068000DF931F92CDB7DEB789830E94D2028981A2
:100690000E947A028093CE018FEF0E947A028983B2
:1006A0000E940D0289810F90DF91CF910895EF9202
:1006B000FF921F93CF93DF9300D01F92CDB7DEB789
:1006C000162F4A837B8389830E94D20289818062AC
:1006D0000E947A028093CE01E12E7B81F72E4A811F
:1006E000140F1E1531F0F70181917F010E947A02EB
:1006F000F8CF0F900F900F90DF91CF911F91FF9047
:10070000EF900C940D020E94D20280E50E947A02C2
:100710008093CE0183E70E947A020C940D020E941E
:10072000E4061F920F920FB60F9211242F933F935E
:100730004F935F936F937F938F939F93AF93BF93E9
:10074000EF93FF9388E291E00E942D01FF91EF91DA
:10075000BF91AF919F918F917F916F915F914F91D9
:100760003F912F910F900FBE0F901F9018951F92E1
:100770000F920FB60F9211242F938F939F93EF93A5
:10078000FF93E0913801F09139018081E0913E01C1
:10079000F0913F0182FD12C09081809141018F5FF5
:1007A0008F7320914201821751F0E0914101F0E0F6
:1007B000E85DFE4F958F8093410101C08081FF91DC
:1007C000EF919F918F912F910F900FBE0F901F90DF
:1007D00018951F920F920FB60F9211242F933F93EB
:1007E0008F939F93AF93BF9380911D0190911E01B2
:1007F000A0911F01B091200130911C0123E0230F33
:100800002D3720F40196A11DB11D05C026E8230F48
:100810000296A11DB11D20931C0180931D01909390
:100820001E01A0931F01B09320018091210190919E
:100830002201A0912301B09124010196A11DB11DB7
:100840008093210190932201A0932301B09324016E
:10085000BF91AF919F918F913F912F910F900FBEBC
:100860000F901F901895E8E2F1E01382128288EE53
:1008700093E0A0E0B0E084839583A683B7838AE009
:1008800091E09183808385EC90E09587848784EC68
:1008900090E09787868780EC90E0918B808B81EC4D
:1008A00090E0938B828B82EC90E0958B848B86EC2E
:1008B00090E0978B868B118E128E138E148EE6EC41
:1008C000F1E087E0828388E0838380E896E9A8E905
:1008D000B0E084839583A683B78380E28187108A02
:1008E000118A85E0838B81E0848B85E090E0A0E035
:1008F000B0E0828F938FA48FB58F85EC91E09183C8
:10090000808312860895789484B5826084BD84B50E
:10091000816084BD85B5826085BD85B5816085BDFA
:1009200080916E00816080936E00109281008091B2
:10093000810082608093810080918100816080933A
:100940008100809180008160809380008091B1005F
:1009500084608093B1008091B00081608093B0008A
:1009600080917A00846080937A0080917A0082601E
:1009700080937A0080917A00816080937A008091E0
:100980007A00806880937A001092C100E09138016B
:10099000F091390182E08083E0913401F0913501DA
:1009A0001082E0913601F09137018FEC8083109234
:1009B0004001E0913C01F0913D0186E08083E091AF
:1009C0003A01F0913B01808180618083E0913A019E
:1009D000F0913B01808188608083E0913A01F09141
:1009E0003B01808180688083E0913A01F0913B0176
:1009F00080818F7D80838AE00E949800CFB7F89431
:100A000080912501811124C0E6EAF0E08491EAEBAF
:100A1000F0E09491E82FF0E0EE0FFF1FEE56FF4F4D
:100A2000A591B491EC91E92321F461E08AE00E9460
:100A3000C1018AE00E9498008CB580618CBD8CB5A4
:100A400080648CBD8DE00E9498008BE00E9498002D
:100A5000809125018F5F80932501CFBF8091C801D0
:100A60008F3F09F497C09091C9019F3F09F492C04C
:100A7000891731F00E9498008091C9010E94980066
:100A80008091C8019091C901891719F060E00E9416
:100A9000C10161E08091C9010E94C1018091E00122
:100AA0009091E1010E948D0065E070E080E090E0AF
:100AB0000E94400240E06FE584E00E94160386E059
:100AC0000E943F0345E550E060E070E04093DC01A8
:100AD0005093DD016093DE017093DF01682F677D25
:100AE00040E086E00E94160386E00E943F038DE10D
:100AF0000E943F03C82F0E9483038DE10E943F03A1
:100B000091E0C81390E09093D601811100C110923A
:100B1000D80140E060E08CE10E9416031092DA01F7
:100B200040E06FE381E00E94160340E063E082E072
:100B30000E94160380E28093CF01C1E140E0609102
:100B4000CF018C2F0E941603CF5FC731B9F740E069
:100B500063E083E00E94160385E08093D90140E0C2
:100B60006CE40E94160340E060E787E00E941603F1
:100B700082EE0E94030381EE0E94030340E06CE0DA
:100B800080E00E94160380E00E943F038093D5011D
:100B90000E942F034091D90150E060E071E080EDA8
:100BA00091E00E94E90681E08093D701ECE7F0E054
:100BB00084914091D90160E071E00E94570382E086
:100BC0000E943F03C2E8D0E0FE01949161E070E032
:100BD00001C0660F9A95EAF7682B40E082E00E9418
:100BE000160386E00E943F03887F682F616040E023
:100BF00086E00E9416030E942F036091D501616078
:100C00006093D50140E080E00E94160340E060E779
:100C100087E00E9416038091C8019091C90189174D
:100C200019F061E00E94C1018091D701882341F051
:100C30004091D90160ED71E08AE00E94570314C031
:100C400082E00E943F03FE01C49121E030E001C038
:100C5000220FCA95EAF72095622F682340E082E0D0
:100C60000E9416031092D7018FEF0E940303809118
:100C7000CE0190E0959587958770863008F450C036
:100C800034C00E940D0240E060E487E00E94160339
:100C9000C0902601D09027010D2C000CEE08FF0813
:100CA000F7FE66C0E0912801F09129010190F081E2
:100CB000E02D6DE288E291E0099566277727CB0168
:100CC0006C197D098E099F094AE00E94810242E069
:100CD00050E068E171E088E291E00E94B70068ECC2
:100CE00070E080E090E00E944002809126019091A7
:100CF00027018530910514F460E003C04E9724F07D
:100D000061E08AE00E94C1010E94B701ADCF91115C
:100D10000E94830340E060E08DE10E941603F7CE5D
:100D20008091DA01811108C0C091CF01DC2FC3305E
:100D300008F0D2E0CD1B02C0C0E0D2E00E94D20297
:100D400081E60E947A028093CE0106E211E0D15042
:100D500038F08FEF0E947A02F80181938F01F7CF6C
:100D6000CC2309F48ECF8FEF0E947A02C150F8CFC6
:100D70004AE0C701B601A9CFA1E21A2EAA1BBB1BEC
:100D8000FD010DC0AA1FBB1FEE1FFF1FA217B30757
:100D9000E407F50720F0A21BB30BE40BF50B661F6D
:100DA000771F881F991F1A9469F760957095809531
:100DB00090959B01AC01BD01CF010895EE0FFF1F7F
:100DC0000590F491E02D099481E090E0F8940C9462
:100DD000F206FB01DC0102C001900D92415050402F
:080DE000D8F70895F894FFCF45
:100DE800303030303100000000004E01B700E6001E
:0C0DF80095011701F50009010D0A00002B
:107E0000112484B714BE81FFF0D085E080938100F7
:107E100082E08093C00088E18093C10086E0809377
:107E2000C20080E18093C4008EE0C9D0259A86E02C
:107E300020E33CEF91E0309385002093840096BBD3
:107E4000B09BFECF1D9AA8958150A9F7CC24DD24C4
:107E500088248394B5E0AB2EA1E19A2EF3E0BF2EE7
:107E6000A2D0813461F49FD0082FAFD0023811F036
:107E7000013811F484E001C083E08DD089C08234E0
:107E800011F484E103C0853419F485E0A6D080C0E4
:107E9000853579F488D0E82EFF2485D0082F10E0AE
:107EA000102F00270E291F29000F111F8ED06801E7
:107EB0006FC0863521F484E090D080E0DECF843638
:107EC00009F040C070D06FD0082F6DD080E0C81688
:107ED00080E7D80618F4F601B7BEE895C0E0D1E017
:107EE00062D089930C17E1F7F0E0CF16F0E7DF06D8
:107EF00018F0F601B7BEE89568D007B600FCFDCFD4
:107F0000A601A0E0B1E02C9130E011968C91119780
:107F100090E0982F8827822B932B1296FA010C0160
:107F200087BEE89511244E5F5F4FF1E0A038BF0790
:107F300051F7F601A7BEE89507B600FCFDCF97BE46
:107F4000E89526C08437B1F42ED02DD0F82E2BD052
:107F50003CD0F601EF2C8F010F5F1F4F84911BD097
:107F6000EA94F801C1F70894C11CD11CFA94CF0C13
:107F7000D11C0EC0853739F428D08EE10CD085E9AC
:107F80000AD08FE07ACF813511F488E018D01DD067
:107F900080E101D065CF982F8091C00085FFFCCF94
:107FA0009093C60008958091C00087FFFCCF809118
:107FB000C00084FD01C0A8958091C6000895E0E648
:107FC000F0E098E1908380830895EDDF803219F02E
:107FD00088E0F5DFFFCF84E1DECF1F93182FE3DFCA
:107FE0001150E9F7F2DF1F91089580E0E8DFEE27F6
:047FF000FF270994CA
:027FFE00040479
:0400000300007E007B
:00000001FF
