:100000000C9463000C948B000C948B000C948B006C
:100010000C948B000C948B000C948B000C948B0034
:100020000C948B000C948B000C948B000C948B0024
:100030000C948B000C948B000C948B000C948B0014
:100040000C94AF030C948B000C947D030C94570319
:100050000C948B000C948B000C948B000C948B00F4
:100060000C948B000C948B0000000008000201002F
:100070000003040700000000000000000A0B0C0D44
:100080000E0F0001020304050000000025002800F7
:100090002B0000000000240027002A0004040404B0
:1000A0000404040402020202020203030303030322
:1000B00001020408102040800102040810200102FF
:1000C00004081020F90311241FBECFEFD8E0DEBFD3
:1000D000CDBF21E0ACE1B1E001C01D92A23EB2076C
:1000E000E1F711E0A0E0B1E0EAE8FDE002C0059030
:1000F0000D92AC31B107D9F710E0C3E6D0E004C0EF
:100100002197FE010E94AF06C236D107C9F70E94AF
:1001100049040C94C3060C9400008230910538F019
:10012000880F991F880F991F05970197F1F7089578
:1001300090E0FC01E055FF4F2491FC01E456FF4F95
:100140008491882399F090E0880F991FFC01EE5666
:10015000FF4FA591B491FC01E857FF4F8591949111
:100160008FB7F894EC91E22BEC938FBF0895CF9268
:10017000DF92EF92FF920F931F93CF93DF936C0167
:100180007A018B01C0E0D0E0CE15DF0589F0D801FF
:100190006D918D01D601ED91FC910190F081E02DE2
:1001A000C6010995892B11F47E0102C02196ECCF7E
:1001B000C701DF91CF911F910F91FF90EF90DF90DA
:1001C000CF900895089580E090E00895FC01538D4C
:1001D000448D252F30E0842F90E0821B930B541721
:1001E00010F0CF96089501970895FC01918D828DAE
:1001F000981761F0828DDF01A80FB11D5D968C917B
:10020000928D9F5F9F73928F90E008958FEF9FEF85
:100210000895FC01918D828D981731F0828DE80F41
:10022000F11D858D90E008958FEF9FEF0895FC01FB
:10023000918D228D892F90E0805C9F4F821B9109C8
:100240008F739927089586E291E00E94170121E0BB
:10025000892B09F420E0822F0895FC01848DDF01B1
:10026000A80FB11DA35ABF4F2C91848D90E0019629
:100270008F739927848FA689B7892C93A089B18918
:100280008C9180648C93938D848D981306C0028822
:10029000F389E02D80818F7D80830895EF92FF9216
:1002A0000F931F93CF93DF93EC0181E0888F9B8D99
:1002B0008C8D981305C0E889F989808185FD24C05B
:1002C000F62E0B8D10E00F5F1F4F0F731127E02EDE
:1002D0008C8DE8120CC00FB607FCFACFE889F989BB
:1002E000808185FFF5CFCE010E942D01F1CF8B8D4E
:1002F000FE01E80FF11DE35AFF4FF0820B8FEA89F0
:10030000FB898081806207C0EE89FF896083E8896C
:10031000F98980818064808381E090E0DF91CF91D2
:100320001F910F91FF90EF900895CF93DF93EC0111
:10033000888D8823C9F0EA89FB89808185FD05C005
:10034000A889B9898C9186FD0FC00FB607FCF5CF3F
:10035000808185FFF2CFA889B9898C9185FFEDCF87
:10036000CE010E942D01E7CFDF91CF91089580E06B
:1003700090E0892B29F00E94230181110C94000048
:10038000089590E0FC01E859FF4F3491FC01E055DD
:10039000FF4F2491FC01E456FF4FE491EE2309F452
:1003A0003BC0332339F1333091F038F43130A9F0C8
:1003B000323001F584B58F7D12C0373091F038307E
:1003C000A1F03430B9F4809180008F7D03C080911A
:1003D00080008F77809380000DC084B58F7784BDB7
:1003E00009C08091B0008F7703C08091B0008F7DED
:1003F0008093B000F0E0EE0FFF1FE857FF4FA5918C
:10040000B4918FB7F894EC91611103C020952E231D
:1004100001C02E2B2C938FBF0895CF93DF93C4EC94
:10042000D1E061E08B810E94C1018A8D9B8DDF91BB
:10043000CF910C948D003FB7F89480912101909159
:100440002201A0912301B091240126B5A89B05C0EB
:100450002F3F19F00196A11DB11D3FBFBA2FA92F43
:10046000982F8827820F911DA11DB11DBC01CD01C0
:1004700042E0660F771F881F991F4A95D1F70895AC
:100480008EBD00000DB407FEFDCF8EB508950F930D
:100490001F930091C8011091C9012091CA013091A8
:1004A000CB0190E040E052E16AE770E004171507E5
:1004B0002607370740F476956795579547959F5FD0
:1004C0009630A1F797E081E08927982F906A96955A
:1004D00081709CBD8DBD60E08091C7010E94C1010B
:1004E0008091DE019091DF011F910F910C948D009E
:1004F000CF93DF931F92CDB7DEB789830E94470267
:10050000898180620E9440028093CC010F90DF912C
:10051000CF910C940D02CF93DF93442321F0DF9110
:10052000CF910C947802D62FC82F0E9447028C2FAF
:1005300080620E9440028093CC018D2F0E94400275
:10054000DF91CF910C940D026091D30161FD0BC03E
:1005500062606093D30140E080E00E948B028BE1F7
:100560009EE40197F1F70895CF93DF931F92CDB7E3
:10057000DEB789830E94470289810E9440028093EE
:10058000CC018FEF0E94400289830E940D02898175
:100590000F90DF91CF910895EF92FF921F93CF9329
:1005A000DF9300D01F92CDB7DEB7162F4A837B832F
:1005B00089830E944702898180620E944002809361
:1005C000CC01E12E7B81F72E4A81140F1E1531F0EC
:1005D000F70181917F010E944002F8CF0F900F90A8
:1005E0000F90DF91CF911F91FF90EF900C940D022F
:1005F0000E94470280E50E9440028093CC0183E77D
:100600000E9440020C940D028F929F92AF92BF9273
:100610000F931F93CF93DF93CDB7DEB7A1970FB69C
:10062000F894DEBF0FBECDBF19A2423008F44AE0F5
:100630008E010F5D1F4F842E912CA12CB12CA50192
:1006400094010E948D06E62FB901CA0101501109DB
:10065000EA3014F4E05D01C0E95CD801EC93232B8F
:10066000242B252B61F70115110571F0F80101907C
:100670000020E9F73197AF01401B510BB80186E22A
:1006800091E00E94B70002C080E090E0A1960FB612
:10069000F894DEBF0FBECDBFDF91CF911F910F91B8
:1006A000BF90AF909F908F9008950E94B5061F92C3
:1006B0000F920FB60F9211242F933F934F935F9396
:1006C0006F937F938F939F93AF93BF93EF93FF931A
:1006D00086E291E00E942D01FF91EF91BF91AF91D1
:1006E0009F918F917F916F915F914F913F912F914A
:1006F0000F900FBE0F901F9018951F920F920FB67C
:100700000F9211242F938F939F93EF93FF93E09178
:100710003601F09137018081E0913C01F0913D017B
:1007200082FD12C0908180913F018F5F8F73209175
:100730004001821751F0E0913F01F0E0EA5DFE4F89
:10074000958F80933F0101C08081FF91EF919F9130
:100750008F912F910F900FBE0F901F9018951F92A1
:100760000F920FB60F9211242F933F938F939F9365
:10077000AF93BF9380911D0190911E01A0911F0125
:10078000B091200130911C0123E0230F2D3720F47C
:100790000196A11DB11D05C026E8230F0296A11DDB
:1007A000B11D20931C0180931D0190931E01A09305
:1007B0001F01B09320018091210190912201A0910D
:1007C0002301B09124010196A11DB11D8093210147
:1007D00090932201A0932301B0932401BF91AF9184
:1007E0009F918F913F912F910F900FBE0F901F906F
:1007F0001895E6E2F1E01382128288EE93E0A0E021
:10080000B0E084839583A683B7838AE091E09183E7
:10081000808385EC90E09587848784EC90E09787CF
:10082000868780EC90E0918B808B81EC90E0938BBD
:10083000828B82EC90E0958B848B86EC90E0978B9A
:10084000868B118E128E138E148EE4ECF1E087E00D
:10085000828388E0838380E896E9A8E9B0E0848316
:100860009583A683B78380E28187108A118A85E009
:10087000838B81E0848B85E090E0A0E0B0E0828F04
:10088000938FA48FB58F83EC91E091838083128640
:100890000895CF93DF9300D0CDB7DEB7789484B5B9
:1008A000826084BD84B5816084BD85B5826085BD6C
:1008B00085B5816085BD80916E00816080936E00FA
:1008C00010928100809181008260809381008091EC
:1008D000810081608093810080918000816080939D
:1008E00080008091B10084608093B1008091B0005D
:1008F00081608093B00080917A00846080937A0058
:1009000080917A00826080937A0080917A00816081
:1009100080937A0080917A00806880937A001092A8
:10092000C100E0913601F091370182E08083E091CF
:100930003201F09133011082E0913401F0913501E0
:100940008FEC808310923E01E0913A01F0913B01DF
:1009500086E08083E0913801F091390180818061E7
:100960008083E0913801F091390180818860808333
:10097000E0913801F0913901808180688083E091B5
:100980003801F091390180818F7D80831FB7F89401
:1009900080912501811124C0E6EAF0E08491EAEB20
:1009A000F0E09491E82FF0E0EE0FFF1FEE56FF4FBE
:1009B000A591B491EC91E92321F461E08AE00E94D1
:1009C000C1018AE00E9498008CB580618CBD8CB515
:1009D00080648CBD8DE00E9498008BE00E9498009E
:1009E000809125018F5F809325011FBF8091C601F3
:1009F0008F3F09F4B7C09091C7019F3F09F4B2C07F
:100A0000891731F00E9498008091C7010E949800D8
:100A10008091C6019091C701891719F060E00E948A
:100A2000C10161E08091C7010E94C1018091DE0196
:100A30009091DF010E948D000E941B024B015C011E
:100A400035E0C32ED12CE12CF12C0E941B02DC01DD
:100A5000CB0188199909AA09BB09883E9340A105D1
:100A6000B10558F021E0C21AD108E108F10888EE7A
:100A7000880E83E0981EA11CB11CC114D104E104AE
:100A8000F10419F740E06FE584E00E948B0286E0F4
:100A90000E94B40245E550E060E070E04093DA0166
:100AA0005093DB016093DC017093DD01682F677D5B
:100AB00040E086E00E948B0286E00E94B4028DE155
:100AC0000E94B402182F0E94F8028DE10E94B40225
:100AD00091E0181390E09093D4018111E8C0109236
:100AE000D60140E060E08CE10E948B021092D801B8
:100AF00040E06FE381E00E948B0240E063E082E02F
:100B00000E948B0280E28093CD0111E140E0609170
:100B1000CD01812F0E948B021F5F1731B9F740E092
:100B200063E083E00E948B0285E08093D70140E080
:100B30006CE40E948B0240E060E787E00E948B0239
:100B400082EE0E94780281EE0E94780240E06CE022
:100B500080E00E948B0280E00E94B4028093D30167
:100B60000E94A4024091D70150E060E071E08EEC59
:100B700091E00E94BA0681E08093D501ECE7F0E0B5
:100B800084914091D70160E071E00E94CC0282E044
:100B90000E94B40202E810E0F801949161E070E074
:100BA00001C0660F9A95EAF7682B40E082E00E9448
:100BB0008B0286E00E94B402887F682F616040E06B
:100BC00086E00E948B020E94A4026091D3016160C2
:100BD0006093D30140E080E00E948B0240E060E738
:100BE00087E00E948B028091C6019091C70189170E
:100BF00019F061E00E94C1018091D501882341F084
:100C00004091D7016EEC71E08AE00E94CC0214C0E2
:100C100082E00E94B402F801049121E030E001C0BA
:100C2000220F0A95EAF72095622F682340E082E0C0
:100C30000E948B021092D5018FEF0E947802809162
:100C4000CC0190E09595879587708630C8F12CC0CF
:100C50000E940D0240E060E487E00E948B02C980A0
:100C6000DA800D2C000CEE08FF08F7FE52C0E09170
:100C70002601F09127010190F081E02D6DE286E2DE
:100C800091E0099566277727CB016C197D098E09BC
:100C90009F094AE00E94040342E050E068E171E0ED
:100CA00086E291E00E94B7000E94B701C5CF911182
:100CB0000E94F80240E060E08DE10E948B020FCFBD
:100CC0008091D801811108C01091CD01012F1330FE
:100CD00008F002E0101B02C010E002E00E94470290
:100CE00081E60E9440028093CC01CE0101967C01F6
:100CF000015038F08FEF0E944002F70181937F018D
:100D0000F7CF112309F4A4CF8FEF0E9440021150B6
:100D1000F8CF4AE0C701B601BDCFA1E21A2EAA1B47
:100D2000BB1BFD010DC0AA1FBB1FEE1FFF1FA2179B
:100D3000B307E407F50720F0A21BB30BE40BF50B98
:100D4000661F771F881F991F1A9469F76095709521
:100D5000809590959B01AC01BD01CF010895EE0FE8
:100D6000FF1F0590F491E02D099481E090E0F89444
:100D70000C94C306FB01DC0102C001900D924150AE
:0A0D80005040D8F70895F894FFCF13
:100D8A00303030303100000000004E01B700E6007C
:0C0D9A0095011701F50009010D0A000089
:00000001FF
