:020000040000FA
:100000000C9463000C9437080C9410080C945E0850
:100010000C945E080C945E080C948B000C948B007E
:100020000C948B000C948B000C948B000C948B0024
:100030000C948B000C948B000C948B000C948B0014
:100040000C94C6070C948B000C948B000C948B00C2
:100050000C948B000C948B000C948B000C948B00F4
:100060000C94D6080C948B0000000000240027009C
:100070002A0000000008000201000003040700003D
:1000800000000000000000000000230026002900FE
:1000900000000000250028002B00040404040404D0
:1000A0000404020202020202030303030303010227
:1000B00004081020408001020408102001020408F6
:1000C0001020F5096D0F11241FBECFEFD8E0DEBF61
:1000D000CDBF25E0A0E4B3E001C01D92A830B20777
:1000E000E1F713E0A0E0B1E0E2E1F4E202C0059044
:1000F0000D92A034B107D9F710E0C2E6D0E004C0F9
:100100002197FE010E940410C136D107C9F70E9451
:10011000150B0C94FC110C94000096E0899FD00103
:100120001124A759BB4F90967C936E935F9791E0F3
:1001300091969C939197E091D604F091D704909179
:10014000D504992339F0309751F0811108C080917E
:1001500085040994309719F05C968C91FACF089534
:10016000833081F028F4813099F08230A9F008952D
:100170008730A9F08830C9F08430B1F480918000D4
:100180008F7D03C0809180008F77809380000895D9
:1001900084B58F7784BD089584B58F7DFBCF809122
:1001A000B0008F778093B00008958091B0008F7D6C
:1001B000F9CFCF93DF93282F30E0F901EE58FF4FAE
:1001C0008491F901E255FF4FD491F901E656FF4FB2
:1001D000C491CC23A1F081110E94B000EC2FF0E07B
:1001E000EE0FFF1FEA57FF4FA591B491EC91ED235D
:1001F00081E090E009F480E0DF91CF91089580E004
:1002000090E0FACF1F93CF93DF93282F30E0F901CE
:10021000EE58FF4F8491F901E255FF4FD491F90157
:10022000E656FF4FC491CC23A9F0162F81110E94EE
:10023000B000EC2FF0E0EE0FFF1FE057FF4FA5914D
:10024000B4918FB7F894EC91111108C0D095DE23CA
:10025000DC938FBFDF91CF911F910895DE2BF8CFF4
:10026000CF93DF9390E0FC01E255FF4F2491865637
:100270009F4FFC0184918823C9F090E0880F991F5B
:10028000FC01E859FF4FA591B491FC01E057FF4FE5
:10029000C591D49161110DC09FB7F8948C912095B0
:1002A00082238C938881282328839FBFDF91CF915D
:1002B0000895623051F49FB7F8943C91822F809555
:1002C00083238C93E8812E2BEFCF8FB7F894EC919A
:1002D0002E2B2C938FBFEACF3FB7F89480914F0419
:1002E00090915004A0915104B091520426B5A89B5E
:1002F00005C02F3F19F00196A11DB11D3FBFBA2FB8
:10030000A92F982F8827BC01CD01620F711D811D77
:10031000911D42E0660F771F881F991F4A95D1F7FC
:1003200008958F929F92AF92BF92CF92DF92EF92F9
:10033000FF924B015C010E946C016B017C010E94E9
:100340006C016C197D098E099F09683E7340810517
:100350009105A8F321E0821A9108A108B10888EE5E
:10036000C80E83E0D81EE11CF11C81149104A10485
:10037000B10429F7FF90EF90DF90CF90BF90AF903E
:100380009F908F9008952FB7F89460914B047091CF
:100390004C0480914D0490914E042FBF08950F930B
:1003A0001F93CF93DF93C82FD62F86E0C89FF0010D
:1003B0001124E759FB4F11A2878D90A1813091053F
:1003C000F1F058F082309105F1F1039709F440C043
:1003D000DF91CF911F910F9108956623C9F361E0DA
:1003E00070E08C2F0E948D000E94C3016093C104B5
:1003F0007093C2048093C3049093C404E9CF0E9415
:10040000C3010091C1041091C2042091C304309132
:10041000C404AB01BC01401B510B620B730B8091F8
:10042000D3049091D404B0E0A0E084179507A60708
:10043000B70748F462E070E08C2FDF91CF911F91F5
:100440000F910C948D0063E070E0D111C1CFF4CF17
:1004500070E060E0F1CF8091400490914104A09160
:100460004204B09143040196A11DB11D8093400444
:1004700090934104A0934204B093430408950895D7
:1004800008950895AF92BF92CF92DF92EF92FF92BC
:100490000F931F93CF93DF936C017B018B01040FAC
:1004A000151FEB015E01AE18BF08C017D10759F048
:1004B0006991D601ED91FC910190F081E02DC6018A
:1004C0000995892B79F7C501DF91CF911F910F9184
:1004D000FF90EF90DF90CF90BF90AF900895209164
:1004E0003C0430913D042817390771F490913A0487
:1004F00080913B04981741F0E0913A04F0E0EE500F
:10050000FC4F808190E008958FEF9FEF089508954C
:10051000EF92FF920F931F93CF93DF93DC015C96D2
:10052000ED90FC905D97E114F10479F481E090E0A6
:1005300013969C938E93129790E080E0DF91CF9179
:100540001F910F91FF90EF9008955196ED91FC91BE
:10055000529750968C915097982F90950FB75E9622
:100560002C915E97122F127021FD6095F8942081D6
:10057000112319F1282B2083E7012197F1F728E0B7
:10058000462F50E0308160FF1AC0382B3083E701DE
:100590002197F1F7BA0175956795215089F71123D5
:1005A00081F08081892380830FBF5C968D919C911F
:1005B0000197F1F781E090E0C1CF2923DCCF392307
:1005C000E5CF9081892BEFCF20913C0430913D0401
:1005D0002817390761F480913B0420913A0490E098
:1005E000805C9F4F821B91098F739927089590E03B
:1005F00080E0089520913C0430913D04281739078C
:10060000B9F490913A0480913B04981789F0E091F5
:100610003A04F0E0EE50FC4F808120913A0430E043
:100620002F5F3F4F2F73332720933A0490E00895B4
:100630008FEF9FEF08952091A803260F3327331FD4
:1006400021323105ECF42091CC03FC0190E080E0F4
:10065000243069F082E00895A091A8032191AC01B3
:1006600048575C4FA40FB52FB11D2C9301968617E8
:1006700098F38091A803680F6093A80380E0089521
:1006800081E008951092CC0381E08093CE03109214
:10069000CD0361E082E10E94020161E083E10E94FA
:1006A0000201E9EBF0E080818E7F808380818D7F85
:1006B000808388E48093B80085E48093BC0008952B
:1006C000CF93DF9391E0909387038823B9F0C09193
:1006D000B800D091BA008091BC008A7B8093BC00A6
:1006E00060E082E10E94020160E083E10E94020179
:1006F0000E944203D093BA00C093B800DF91CF911B
:100700000895E091390480913804E81730F4F0E05E
:10071000EE59FC4F808190E008958FEF9FEF089590
:1007200090913904809138042FEF3FEF981748F4E7
:10073000E92FF0E0EE59FC4F208130E09F5F90936D
:100740003904C90108958091380490913904891BB6
:10075000990B0895CF92DF92EF92FF920F931F9320
:10076000CF93DF937C01CB018A0120916103222387
:1007700089F0EB016B01C40ED51ECC15DD0569F0C7
:100780006991D701ED91FC910190F081E02DC701B5
:100790000995F3CF642F0E941B03C801DF91CF910D
:1007A0001F910F91FF90EF90DF90CF900895CF931E
:1007B000DF931F92CDB7DEB76983209161032223B7
:1007C000F9F020913604203258F021E030E0FC01AD
:1007D0003383228390E080E00F90DF91CF910895E2
:1007E00080913704E82FF0E0EF5BFC4F9981908314
:1007F0008F5F809337048093360481E090E0ECCFE4
:1008000061E0CE0101960E941B03F7CFCF92DF92E9
:10081000EF92FF920F931F93CF93DF93FC01C4815C
:1008200021E020936103C09340031092370410929B
:1008300036048485682B83E594E00E94D703D09129
:100840003604D13208F092C00E946C016B017C0129
:100850008091CC03811165C082E08093CC0381E05C
:100860008093CE038FEF8093CB031092F003D0934D
:10087000EF03A1E4B3E0EFECF3E080E0D81385C030
:100880001092F1038091F103CC0FC82BC093F103B8
:100890008091CD03813009F07CC01092CD030E947D
:1008A0006C016B017C018091F1038093BB0080910E
:1008B000830390918403A0918503B0918603892BD3
:1008C0008A2B8B2B99F00E946C010091830310916D
:1008D000840320918503309186036C197D098E096C
:1008E0009F090617170728073907E0F18091BC0018
:1008F00083FDD9CF85EC8093BC000E946C016B0115
:100900007C018091CC03823009F445C08091CB03F7
:100910008F3F61F18091CB03803241F18091CB0315
:1009200025C08091830390918403A0918503B091A9
:100930008603892B8A2B8B2B09F48ACF0E946C01AA
:1009400000918303109184032091850330918603E5
:100950006C197D098E099F090617170728073907A3
:1009600008F076CF809182030E94600310923704D2
:100970001092360410926103DF91CF911F910F9175
:10098000FF90EF90DF90CF9008959D9191938F5FAE
:1009900075CF85EEB0CF8091830390918403A091B1
:1009A0008503B0918603892B8A2B8B2B09F4A9CF61
:1009B0000E946C01009183031091840320918503B0
:1009C000309186036C197D098E099F090617170758
:1009D0002807390708F095CFC5CF089590E080E04B
:1009E0000895862F0C94D900862F642F0C94020151
:1009F000862F642F0C9430010F931F93CF938C019B
:100A0000C62F0E9406046C2F6460C8010E94060471
:100A10006C2F6B7FC8010E94060483EC90E0019765
:100A2000F1F7CF911F910F9108950F931F93CF93DB
:100A3000DF938C01D62FC42F607F642B0E94FC04AF
:100A400080E1D89FB00111246C2BC801DF91CF91B8
:100A50001F910F910C94FC04CF93DF93CDB7DEB7B9
:100A600028970FB6F894DEBF0FBECDBF98E0EDE13A
:100A7000F1E0DE01119601900D929A95E1F79091C7
:100A8000E004961710F46FEF690F262F30E0220F65
:100A9000331F41E050E04C0F5D1F240F351FF9015B
:100AA0006081680F606840E088ED94E028960FB69A
:100AB000F894DEBF0FBECDBFDF91CF910C9415052A
:100AC00040E061E088ED94E00E9415058BE39FE132
:100AD0000197F1F78091E104882321F060E080E044
:100AE0000C942C05089541E00E94150581E090E0EA
:100AF0000895FC0101900020E9F73197AF01481BF0
:100B0000590BBC0188ED94E00C9442020F931F93A3
:100B1000CF93DF93EC0188819981009759F02A8166
:100B20003B812617370730F081E0DF91CF911F918D
:100B30000F9108958B016F5F7F4F0E942F110097D7
:100B400059F0998388831B830A832C813D81232B51
:100B500059F7FC011082E8CF80E0E7CFEF92FF92D7
:100B60000F931F93CF93DF93EC017B01FB01019067
:100B70000020E9F731978F01061B170BB8010E947F
:100B8000860528813981811113C02115310519F09D
:100B9000C9010E94A610198218821D821C821B8224
:100BA0001A82DF91CF911F910F91FF90EF900895DE
:100BB0001D830C83B701C901DF91CF911F910F9164
:100BC000FF90EF900C94F5114F925F926F927F928D
:100BD0008F929F92AF92BF92CF92DF92EF92FF924D
:100BE0000F931F93CF93DF93CDB7DEB728970FB640
:100BF000F894DEBF0FBECDBF81E08093D5040E9484
:100C0000C3010091C5041091C6042091C70430911E
:100C1000C804AB01BC01401B510B620B730B8091EC
:100C2000D1049091D204B0E0A0E084179507A60704
:100C3000B70708F02CC110E08091CF04181760F4BA
:100C4000E091CB04F091CC04E10FF11D62E08081D2
:100C50000E9430011F5FF0CF912C412C512C3201AA
:100C600043948091D004981608F061C0E92CF12CCF
:100C7000E091CD04F091CE04EE0DFF1D61E0808186
:100C80000E943001E091CD04F091CE04EE0DFF1DE5
:100C900060E080810E940201D301C201092C04C0DE
:100CA000880F991FAA1FBB1F0A94D2F75C016C0121
:100CB000C094D094812C8091CF04881608F5082D1B
:100CC00010E0E091CB04F091CC04E00FF11F8081A3
:100CD0000E94D9000C5F1F4F000F111FF801E75948
:100CE000FB4F892B41F4808191818A299B29918333
:100CF00080838394E0CF808191818C219D21F7CFE7
:100D0000E091CD04F091CE04EE0DFF1D61E08081F5
:100D10000E9402018091CD049091CE04E80EF91E4C
:100D200060E0F70180810E94300193949ACF29E618
:100D3000C22E24E0D22E86018FEF9FEFF801278D7F
:100D400030A1232B21F4148E968F858F11A20A5F78
:100D50001F4FF4E0053A1F0789F7B12C96E0992E52
:100D60008091CF04B81608F052C0A12CEB2CF12CC6
:100D7000EE0CFF1CC7018F589B4F7C012091D004C3
:100D8000A21608F042C0F701608171810A2C02C0EE
:100D9000769567950A94E2F7B29E900111242A0D88
:100DA000311DE9E6F4E080E0458D568D24173507C6
:100DB00009F4B2C08F5F36968A30B1F760FF23C066
:100DC000E9E6F4E090E080E0448D411117C0E09145
:100DD000C904F091CA04E20FF31F4081989EF0010C
:100DE000999EF00D1124E759FB4F448F368F258FC4
:100DF00010A2178E61E00E94CF0105C001963696C1
:100E00008A30910509F7A394B9CFB394A9CFF12CF7
:100E1000F60181A18111F82EF6E0CF0ED11C0C1540
:100E20001D05B1F70E94C3016093C5047093C60409
:100E30008093C7049093C804FF2049F180918A04ED
:100E4000882329F180918804909189040197F9F40D
:100E50008091850480934804833211F08A32E1F452
:100E600028960FB6F894DEBF0FBECDBFDF91CF91AD
:100E70001F910F91FF90EF90DF90CF90BF90AF90B8
:100E80009F908F907F906F905F904F9008951092F9
:100E9000D5041092480480E01A8219821C821B82B9
:100EA0001E821D828F831886BE01695F7F4FCE012F
:100EB00001960E94AE0509811A810115110581F282
:100EC000ED80FE80C801E114F10419F180916704FE
:100ED00090916804E80EF91EB70183E694E00E9441
:100EE0008605882389F02091630430916404809101
:100EF000670490916804B801820F931F0E94F51156
:100F0000F0926804E092670489819A81009709F45D
:100F1000A7CF0E94A610A4CF61706DCF85ED8093FE
:100F2000BC008091830390918403A0918503B091CC
:100F300086030796A11DB11D23E0B695A795979549
:100F400087952A95D1F72091BC0024FD03C010920B
:100F5000CC030895409183035091840360918503ED
:100F600070918603452B462B472B69F30097A1050B
:100F7000B10541F02AE22A95F1F700C00197A109D5
:100F8000B109E1CF809182030C9460031F920F920C
:100F90000FB60F9211242F933F938F939F93AF938C
:100FA000BF9380914B0490914C04A0914D04B0915B
:100FB0004E0430914A0423E0230F2D3758F5019653
:100FC000A11DB11D20934A0480934B0490934C04BF
:100FD000A0934D04B0934E0480914F04909150041F
:100FE000A0915104B09152040196A11DB11D8093AE
:100FF0004F0490935004A0935104B0935204BF91B6
:10100000AF919F918F913F912F910F900FBE0F90B5
:101010001F90189526E8230F0296A11DB11DD2CF6F
:101020001F920F920FB60F9211242F933F934F935D
:101030005F936F937F938F939F93AF93BF93EF9340
:10104000FF93E0910201F09103010995FF91EF9167
:10105000BF91AF919F918F917F916F915F914F91D0
:101060003F912F910F900FBE0F901F9018951F92D8
:101070000F920FB60F9211242F933F934F935F93CC
:101080006F937F938F939F93AF93BF93EF93FF9350
:10109000E0910001F09101010995FF91EF91BF915D
:1010A000AF919F918F917F916F915F914F913F9100
:1010B0002F910F900FBE0F901F9018951F920F92B7
:1010C0000FB60F9211242F933F934F935F936F931B
:1010D0007F938F939F93AF93BF93EF93FF93E09191
:1010E0003C04F0913D04309749F0A685B78585858D
:1010F000968D91FF14C09C918923A1F4FF91EF91EB
:10110000BF91AF919F918F917F916F915F914F911F
:101110003F912F910F900FBE0F901F9018959C91AB
:10112000892361F7A389B4899C9185898095892356
:101130008C93868997890197F1F7608D718DA685CB
:10114000B785558538E020E0CB010197F1F7822F74
:1011500090E095958795282F4C91452309F02068BC
:10116000315091F7868D81FD209580913B0490E070
:1011700001968F73992730913A04381799F0A0910E
:101180003B04B0E0AE50BC4F2C9380933B04828D67
:10119000938D0197F1F7A389B4898C919589892B57
:1011A0008C93ACCF868D8160868FF1CF1F920F928A
:1011B0000FB60F9211242F933F934F935F936F932A
:1011C0007F938F939F93AF93BF93EF93FF93809100
:1011D000B900887F803609F44AC0F0F5883209F4F6
:1011E000A7C018F5803109F49BC0B8F4882309F42E
:1011F000F9C0883009F494C0FF91EF91BF91AF918D
:101200009F918F917F916F915F914F913F912F911E
:101210000F900FBE0F901F901895883109F488C069
:10122000803251F78093CB0314C0803409F49DC001
:1012300040F48033B9F38833F9F68093CB0385EC1F
:10124000B0C0803509F485C0883509F496C088346B
:1012500099F60E948E07D0CF883909F48CC038F5F2
:10126000883729F050F4883611F0803729F683E06A
:101270008093CC031092CA0357C0883809F47BC00E
:10128000803919F0803809F0B7CF8091CA038032D5
:1012900008F071C0E091CA0381E08E0F8093CA0309
:1012A0008091BB00F0E0E655FC4F80833DC0803B61
:1012B00039F0E0F4803A09F479C0883A09F09CCF1B
:1012C00084E08093CC031092A9031092A803E091CC
:1012D0003404F091350409958091A80381110FC061
:1012E00081E08093A8031092880309C0803C09F430
:1012F000A6CF883C09F4A3CF883B09F07DCFE091CD
:10130000A90381E08E0F8093A903F0E0E857FC4F1A
:1013100080818093BB009091A9038091A80329C08C
:101320008091F1038093BB0085EC8093BC0064CF77
:101330009091F0038091EF03981758F5E091F00336
:1013400081E08E0F8093F003F0E0E153FC4F808149
:10135000E9CFE091F00381E08E0F8093F00380915C
:10136000BB00F0E0E153FC4F80839091F00380914B
:10137000EF039817C8F285E8D8CFE091F00381E039
:101380008E0F8093F0038091BB00F0E0E153FC4F9F
:1013900080838091CE0381115CCF81E08093CD0367
:1013A00084EA8093BC001092CC0326CF85EC809316
:1013B000BC001092CC038091CA03803230F4E091DB
:1013C000CA03F0E0E655FC4F10826091CA0370E05A
:1013D000E0913204F09133048AEA93E00995109287
:1013E000CA030ACF1092CB0334CF10925604109246
:1013F000550488EE93E0A0E0B0E08093570490930A
:101400005804A0935904B0935A0429E231E0309370
:101410005404209353041092E8041092E70480933C
:10142000E9049093EA04A093EB04B093EC0481E503
:1014300091E09093E6048093E5041092FC041092EE
:10144000FB041092FE041092FD041092000510920D
:10145000FF041092020510920105609103056E7F52
:101460006D7F609303056695617081E068278CE06D
:101470000E94020161E08CE00E943001EAEBF0E0A2
:10148000E491E093F504E6EAF0E0E491F0E0EE0F99
:10149000FF1FE057FF4F859194919093F70480933D
:1014A000F60460E08DE00E9430018091030581FD2B
:1014B00004C061E08DE00E9402018DE08093F104A0
:1014C000EBEBF0E0E491E093F204E7EAF0E0E49182
:1014D000F0E0EE0FFF1FEA57FF4F85919491909334
:1014E000F4048093F3041092DB041092DA0485E490
:1014F00091E09093D9048093D8041092E10487E29C
:101500008093DC0484E18093E20484E08093E3042C
:101510001092E40410926B0410926F0410926E0407
:10152000109270048BE391E090936A0480936904B5
:10153000E5E8F4E081EC94E01082148213821582D5
:1015400036968E179F07C1F787E091E09093CC0401
:101550008093CB0484E091E09093CE048093CD04FB
:1015600084E08093CF0483E08093D0048BE091E00B
:101570009093CA048093C9048AE090E09093D204C7
:101580008093D10484EF91E09093D4048093D304AA
:101590001092D7041092D6041092C5041092C6047B
:1015A0001092C7041092C8041092D50410926404DB
:1015B00010926304109266041092650410926804FD
:1015C0001092670470E060E083E694E00E94860574
:1015D000209163043091640481111DC021153105EF
:1015E00019F0C9010E94A6101092640410926304BD
:1015F00010926804109267041092660410926504B9
:101600000E94C30160935F0470936004809361043F
:1016100090936204089510926804109267046AE33C
:1016200072E0C9010E94F511EBCF789484B5826015
:1016300084BD84B5816084BD85B5826085BD85B576
:10164000816085BD80916E00816080936E001092F4
:10165000810080918100826080938100809181006F
:101660008160809381008091800081608093800000
:101670008091B10084608093B1008091B00081605E
:101680008093B00080917A00846080937A0080918A
:101690007A00826080937A0080917A0081608093E2
:1016A0007A0080917A00806880937A001092C1005D
:1016B00010923904109238041092370410923604B4
:1016C0000E9442038FE392E09093350480933404A8
:1016D00080E492E090933304809332041092DD040E
:1016E0008091E304823018F098E09093DD048093B9
:1016F000E00462E370E080E090E00E94910160917C
:10170000E40488ED94E00E94060468EE73E080E053
:1017100090E00E94910160E388ED94E00E94FC0457
:10172000CBE4D6E4CE010197F1F760E388ED94E0D5
:101730000E94FC042197F1F760E388ED94E00E9499
:10174000FC0483E592E00197F1F760E288ED94E014
:101750000E94FC046091DD04606240E088ED94E04A
:101760000E94150584E08093DE0440E06CE088ED83
:1017700094E00E9415050E94600582E08093DF04DA
:1017800040E066E088ED94E00E94150540E062E0EC
:1017900088ED94E00E9415058BE39FE10197F1F736
:1017A00088E08093E40460E088ED94E00E94060401
:1017B000109200051092FF041092FE041092FD0496
:1017C0001092FC041092FB048DE991E090930205C5
:1017D000809301059091F104963108F047C02DEBFC
:1017E00030E03093FC042093FB042BE931E030938C
:1017F000FE042093FD042CE231E030930005209399
:10180000FF042091680084E0983048F031E09E3079
:1018100008F430E081E001C0880F3A95EAF7822BA6
:10182000809368002DE630E0983050F02BE630E0F1
:101830009E3030F02CE630E0963110F030E020E0C1
:101840003093F9042093F804292F30E0983008F001
:1018500070C281E001C0880F9A95EAF78093FA047C
:1018600080910105909102050197F1F78091FF04A5
:1018700090910005892B49F1E0913C04F0913D04E1
:1018800024E0E53EF20709F1309739F0A389B489E5
:101890009C918589809589238C93809103058E7F07
:1018A0008093030510923B0410923A0485EE94E075
:1018B00090933D0480933C04E091F804F091F90486
:1018C00080819091FA04892B808360E082E00E94FD
:1018D000300161E086E00E94300161E08AE00E9410
:1018E000300162E08BE00E94300161E088E00E94FC
:1018F000300162E087E00E94300162E089E00E94EE
:10190000300162E081E00E94300161E086E00E94E7
:1019100002018BE292E0909301018093000180919B
:101920006900836080936900E89A60E080E00E942B
:101930002C058FE591E00E94790561E080E00E942E
:101940002C0584E791E00E94790562E080E00E9426
:101950002C0589E891E00E94790563E080E00E940F
:101960002C058EE991E00E94790568EB7BE080E030
:1019700090E00E9491010E946005C0E0D0E081E00B
:101980000E94D900892B79F480913E0490913F0404
:10199000019690933F0480933E0464E670E080E0FB
:1019A00090E00E94910180913E0490913F04892B28
:1019B00001F560E080E00E942C0583EB91E00E943D
:1019C000790561E080E00E942C0588EC91E00E949E
:1019D000790562E080E00E942C0587ED91E00E948D
:1019E000790563E080E00E942C058CEE91E00E9476
:1019F000790580913E0490913F04019701F560E0E4
:101A000080E00E942C0583EB91E00E94790561E063
:101A100080E00E942C058CEF91E00E94790562E045
:101A200080E00E942C0581E192E00E94790563E04C
:101A300080E00E942C0586E292E00E947905809168
:101A40003E0490913F04029721F410923F041092BB
:101A50003E040E94E40580914804813309F0EBC004
:101A60006AE372E083E694E00E94AE050E9460059E
:101A700060E080E00E942C058BE392E00E947905F3
:101A800061E082E00E942C0580E592E00E947905E9
:101A900061E08DE00E942C0587E592E00E947905C7
:101AA00060E086E00E94020181E0809344040E948D
:101AB000C30100915F041091600420916104309192
:101AC0006204601B710B820B930B653F71408105B3
:101AD000910540F08091400490914104A09142040E
:101AE000B09143040E94E40561E089E00E942C0566
:101AF000409167045091680460916304709164049C
:101B000088ED94E00E94420262E080E00E942C0591
:101B1000809148048A3221F50E94600560E080E0EF
:101B20000E942C058BE392E00E94790561E082E03F
:101B30000E942C0580E592E00E94790561E08DE02D
:101B40000E942C0587E592E00E94790560E086E01E
:101B50000E9402016AE372E083E694E00E94AE050F
:101B600080914804833221F461E086E00E94020102
:101B700080916304909164040097C9F10E94910FD1
:101B8000623371058105910594F16AE372E083E6A1
:101B900094E00E94AE05109240041092410410920D
:101BA0004204109243040E94600561E080E00E94BC
:101BB0002C058DE592E00E94790562E080E00E94AC
:101BC0002C0582E792E00E94790560E086E00E94A1
:101BD000020161E08AE00E94020168EB7BE080E0A4
:101BE00090E00E94910160E08AE00E94020187E09B
:101BF0000E94D900892B71F461E088E00E94020103
:101C000068EB7BE080E090E00E94910160E088E07A
:101C10000E9402018BE00E94D900892B41F40E94AE
:101C200060051092440461E086E00E940201809108
:101C3000440481113CCF80914804823309F086C06E
:101C40006AE372E083E694E00E94AE050E946005BC
:101C500060E080E00E942C0588E892E00E9479050F
:101C600061E080E00E942C058EE992E00E947905F7
:101C700062E080E00E942C0589EA92E00E947905EA
:101C800063E080E00E942C0583EB92E00E947905DE
:101C900081E08093450480914504882309F456C06F
:101CA0000E94E40561E088E00E942C0540916704F1
:101CB00050916804609163047091640488ED94E02D
:101CC0000E944202809148048A3241F50E946005D8
:101CD00060E080E00E942C0588E892E00E9479058F
:101CE00061E080E00E942C058EE992E00E94790577
:101CF00062E080E00E942C0589EA92E00E9479056A
:101D000063E080E00E942C0583EB92E00E9479055D
:101D10006AE372E083E694E00E94AE058BE00E94E5
:101D2000D900892B09F0B7CF0E94600510924504B5
:101D3000B2CF9E3040F42850310981E001C0880FB5
:101D40002A95EAF78BCD2E503109F7CF80914804C0
:101D5000833391F56AE372E083E694E00E94AE0576
:101D60000E94600560E080E00E942C0583EB91E01A
:101D70000E94790561E080E00E942C058DEB92E0E5
:101D80000E94790562E080E00E942C058CEC92E0D4
:101D90000E94790581E0809346040E94E4058BE06F
:101DA0000E94D900892B21F40E94600510924604FC
:101DB000809146048111F1CF80914804843309F069
:101DC00051C06AE372E083E694E00E94AE050E948F
:101DD000600560E080E00E942C0589ED92E00E94A1
:101DE000790561E080E00E942C058DEE92E00E9472
:101DF000790581E0809347040E94E40580914804BE
:101E0000813319F56AE372E083E694E00E94AE053F
:101E10000E94600560E080E00E942C0581E093E074
:101E20000E9479050E94E40561E080E00E942C0593
:101E30004091670450916804609163047091640458
:101E400088ED94E00E944202EDCF8BE00E94D90021
:101E5000892B21F40E946005109247048091470469
:101E60008111CACF89E00E94D900892B81F581E0D8
:101E7000809349040E94600561E080E00E942C0587
:101E800086E193E00E94790562E080E00E942C05E3
:101E90008BE293E00E94790561E08AE00E940201F2
:101EA0006CE271E080E090E00E94910189E00E9484
:101EB000D900019741F40E94600560E08AE00E9429
:101EC000020110924904809149048111D3CF2097D7
:101ED00009F455CD0E94000052CD80916304909189
:101EE0006404009711F00E94A61081E591E09093A0
:101EF000E6048093E50480913C0490913D04855E66
:101F0000944071F4E091F804F091F904908180918B
:101F1000FA0480958923808310923D0410923C043A
:101F200008951F93FC0199278827BC01E89411911B
:101F30001032E9F3193010F01E30C8F31B3251F0A3
:101F40001D3249F4689406C00E94B80F610F711DDC
:101F5000811D911D119110531A30B0F33EF49095EC
:101F60008095709561957F4F8F4F9F4F1F9108957A
:101F7000592F482F372F262F660F771F881F991F3D
:101F8000660F771F881F991F620F731F841F951F8D
:101F9000660F771F881F991F08952F923F924F92C7
:101FA0005F926F927F928F929F92AF92BF92CF92E9
:101FB000DF92EF92FF920F931F93CF93DF93CDB7F2
:101FC000DEB7CA1BDB0B0FB6F894DEBF0FBECDBF6A
:101FD00009942A88398848885F846E847D848C843B
:101FE0009B84AA84B984C884DF80EE80FD800C8144
:101FF0001B81AA81B981CE0FD11D0FB6F894DEBF27
:102000000FBECDBFED010895EE0FFF1F0590F491B7
:10201000E02D09940F931F93CF93DF9382309105A6
:1020200010F482E090E0E0910605F091070530E0C1
:1020300020E0B0E0A0E0309799F42115310509F4D3
:102040004AC0281B390B24303105D8F58A819B8181
:102050006115710589F1FB0193838283FE0111C033
:10206000408151810281138148175907E0F04817D8
:10207000590799F4109761F012960C9312971396E2
:102080001C933296CF01DF91CF911F910F9108954C
:102090000093060510930705F4CF2115310551F083
:1020A0004217530738F0A901DB019A01BD01DF0196
:1020B000F801C1CFEF01F9CF909307058093060592
:1020C000CDCFFE01E20FF31F81939193225031098E
:1020D00039832883D7CF2091040530910505232B20
:1020E00041F42091190130911A0130930505209394
:1020F000040520911701309118012115310541F493
:102100002DB73EB740911B0150911C01241B350B8C
:10211000E0910405F0910505E217F307A0F42E1BEA
:102120003F0B2817390778F0AC014E5F5F4F24173B
:10213000350748F04E0F5F1F509305054093040587
:10214000819391939FCFF0E0E0E09CCFCF93DF931A
:102150000097E9F0FC01329713821282A0910605E4
:10216000B0910705ED0130E020E01097A1F4208147
:102170003181820F931F20910405309105052817A6
:10218000390709F061C0F0930505E0930405DF917C
:10219000CF910895EA01CE17DF07E8F54A815B8108
:1021A0009E0141155105B1F7E901FB83EA8349918D
:1021B0005991C40FD51FEC17FD0761F480819181FF
:1021C0000296840F951FE901998388838281938108
:1021D0009B838A83F0E0E0E012968D919C911397A7
:1021E0000097B9F52D913C911197CD010296820F80
:1021F000931F20910405309105052817390739F6FA
:10220000309751F51092070510920605B093050519
:10221000A0930405BCCFD383C28340815181840F36
:10222000951FC817D90761F44E5F5F4F8881998168
:10223000480F591F518340838A819B8193838283F6
:102240002115310509F0B0CFF0930705E09306059D
:102250009ECFFD01DC01C0CF13821282D7CFB0E048
:10226000A0E0E5E3F1E10C94CF0F8C01009751F46D
:10227000CB010E940A108C01C801CDB7DEB7E0E1A6
:102280000C94EB0FFC01E60FF71F9C012250310963
:10229000E217F30708F49DC0D901CD91DC911197A5
:1022A000C617D70798F0C530D10530F3CE01049793
:1022B0008617970708F3C61BD70B2297C193D193B4
:1022C0006D937C93CF010E94A610D6CF5B01AC1A10
:1022D000BD0A4C018C0E9D1EA0910605B09107050C
:1022E000512C412CF12CE12C109731F580910405F3
:1022F000909105058815990509F05CC046165706AA
:1023000008F058C08091170190911801009741F48E
:102310008DB79EB740911B0150911C01841B950BFA
:10232000E817F90708F055C0F0930505E093040598
:10233000F90171836083A0CF8D919C9111971296C2
:102340006C90129713967C901397A815B90559F5C0
:102350006C0142E0C40ED11CCA14DB0420F1AC01B4
:102360004A195B09DA011296159780F0628273822E
:1023700051834083D9016D937C93E114F10471F092
:10238000D7011396FC93EE93129776CF22968C0F7B
:102390009D1FF90191838083F301EFCFF09307052F
:1023A000E093060569CF4816590608F42C017D0113
:1023B000D3019ACFCB010E940A107C01009749F00B
:1023C000AE01B8010E94EC11C8010E94A61087015D
:1023D00053CF10E000E050CFFB01DC0102C00190C0
:1023E0000D9241505040D8F70895FB01DC01019057
:1023F0000D920020E1F7089510E0C2E6D0E004C09D
:10240000FE010E9404102196C336D107C9F7F89443
:10241000FFCF41024102100F0E1103040531323388
:102420003435363738392A3023000008058000005B
:102430000040001400540000000000D703AA03EE7F
:10244000048702A3039003810300000000F804F452
:1024500004F1040000000073054202EE04ED0400E4
:1024600000000088024202EE048702E402FA026FD2
:10247000022A2D4941545420436F6D70616E7920BA
:102480004C74642D2A002020202A2D4465616C7331
:1024900020776974682D2A202020003E456C6563F2
:1024A00074726F6E69632053657276696365730039
:1024B0003E456C656374726963616C205365727626
:1024C0006963657300436861677561206B77656E4A
:1024D0007965204F726F6468610020313A4B7570E6
:1024E000696D61204D616A690020323A416C617208
:1024F0006D207961204368616E6A6F20200020336F
:102500003A4B7573657469204E616D6261002034C9
:102510003A4D70616E67696C696F207761206D75E7
:1025200064610020353A4B696173692063686120FA
:102530004368616B756C61002020202020202020E2
:10254000202020202020202020202020002057652F
:102550006B61206B6961736920636861204D616AFA
:1025600069006B696173693A004C6974613A0020D3
:102570005570696D616A6920556D656B616D696C37
:10258000696B6100202020202D57656B6120436816
:10259000616E6A6F2D20202020004368616775619D
:1025A0002041696E61207961204368616E6A6F0025
:1025B00020313A47756D626F726F0020323A4B6975
:1025C000646572690020333A4B6966616661003167
:1025D0003A426164696C69204E616D626100323A11
:1025E0004E616D6261204D70796100202D4D7061EA
:1025F0006E67696C696F207761204D64612D0020E2
:1026000020313A4B7574756D696B61206368616E3A
:102610006A6F002D2D416E64696B61206D75646178
:102620002057616B6F2D2D002D2D2D4B6961736926
:1026300020636861204D616A692D2D2D00204B6952
:10264000646F676F206B7761204D6174756D697A77
:0226500069001F
:107E0000112484B714BE81FFF0D085E080938100F7
:107E100082E08093C00088E18093C10086E0809377
:107E2000C20080E18093C4008EE0C9D0259A86E02C
:107E300020E33CEF91E0309385002093840096BBD3
:107E4000B09BFECF1D9AA8958150A9F7CC24DD24C4
:107E500088248394B5E0AB2EA1E19A2EF3E0BF2EE7
:107E6000A2D0813461F49FD0082FAFD0023811F036
:107E7000013811F484E001C083E08DD089C08234E0
:107E800011F484E103C0853419F485E0A6D080C0E4
:107E9000853579F488D0E82EFF2485D0082F10E0AE
:107EA000102F00270E291F29000F111F8ED06801E7
:107EB0006FC0863521F484E090D080E0DECF843638
:107EC00009F040C070D06FD0082F6DD080E0C81688
:107ED00080E7D80618F4F601B7BEE895C0E0D1E017
:107EE00062D089930C17E1F7F0E0CF16F0E7DF06D8
:107EF00018F0F601B7BEE89568D007B600FCFDCFD4
:107F0000A601A0E0B1E02C9130E011968C91119780
:107F100090E0982F8827822B932B1296FA010C0160
:107F200087BEE89511244E5F5F4FF1E0A038BF0790
:107F300051F7F601A7BEE89507B600FCFDCF97BE46
:107F4000E89526C08437B1F42ED02DD0F82E2BD052
:107F50003CD0F601EF2C8F010F5F1F4F84911BD097
:107F6000EA94F801C1F70894C11CD11CFA94CF0C13
:107F7000D11C0EC0853739F428D08EE10CD085E9AC
:107F80000AD08FE07ACF813511F488E018D01DD067
:107F900080E101D065CF982F8091C00085FFFCCF94
:107FA0009093C60008958091C00087FFFCCF809118
:107FB000C00084FD01C0A8958091C6000895E0E648
:107FC000F0E098E1908380830895EDDF803219F02E
:107FD00088E0F5DFFFCF84E1DECF1F93182FE3DFCA
:107FE0001150E9F7F2DF1F91089580E0E8DFEE27F6
:047FF000FF270994CA
:027FFE00040479
:00000001FF
